{
  "contractName": "SolnSquareVerifier",
  "abi": [
    {
      "inputs": [
        {
          "internalType": "address",
          "name": "squareVerifierAddress",
          "type": "address"
        },
        {
          "internalType": "string",
          "name": "tokenName",
          "type": "string"
        },
        {
          "internalType": "string",
          "name": "tokenSymbol",
          "type": "string"
        }
      ],
      "payable": false,
      "stateMutability": "nonpayable",
      "type": "constructor"
    },
    {
      "anonymous": false,
      "inputs": [
        {
          "indexed": true,
          "internalType": "address",
          "name": "owner",
          "type": "address"
        },
        {
          "indexed": true,
          "internalType": "address",
          "name": "approved",
          "type": "address"
        },
        {
          "indexed": true,
          "internalType": "uint256",
          "name": "tokenId",
          "type": "uint256"
        }
      ],
      "name": "Approval",
      "type": "event"
    },
    {
      "anonymous": false,
      "inputs": [
        {
          "indexed": true,
          "internalType": "address",
          "name": "owner",
          "type": "address"
        },
        {
          "indexed": true,
          "internalType": "address",
          "name": "operator",
          "type": "address"
        },
        {
          "indexed": false,
          "internalType": "bool",
          "name": "approved",
          "type": "bool"
        }
      ],
      "name": "ApprovalForAll",
      "type": "event"
    },
    {
      "anonymous": false,
      "inputs": [
        {
          "indexed": false,
          "internalType": "address",
          "name": "triggerAddress",
          "type": "address"
        }
      ],
      "name": "Paused",
      "type": "event"
    },
    {
      "anonymous": false,
      "inputs": [
        {
          "indexed": true,
          "internalType": "address",
          "name": "from",
          "type": "address"
        },
        {
          "indexed": true,
          "internalType": "address",
          "name": "to",
          "type": "address"
        },
        {
          "indexed": true,
          "internalType": "uint256",
          "name": "tokenId",
          "type": "uint256"
        }
      ],
      "name": "Transfer",
      "type": "event"
    },
    {
      "anonymous": false,
      "inputs": [
        {
          "indexed": false,
          "internalType": "address",
          "name": "triggerAddress",
          "type": "address"
        }
      ],
      "name": "Unpaused",
      "type": "event"
    },
    {
      "anonymous": false,
      "inputs": [
        {
          "indexed": false,
          "internalType": "address",
          "name": "newAddress",
          "type": "address"
        }
      ],
      "name": "ownershipTransferred",
      "type": "event"
    },
    {
      "anonymous": false,
      "inputs": [
        {
          "indexed": false,
          "internalType": "uint256",
          "name": "index",
          "type": "uint256"
        }
      ],
      "name": "solutionAdded",
      "type": "event"
    },
    {
      "constant": false,
      "inputs": [
        {
          "internalType": "bytes32",
          "name": "_myid",
          "type": "bytes32"
        },
        {
          "internalType": "string",
          "name": "_result",
          "type": "string"
        }
      ],
      "name": "__callback",
      "outputs": [],
      "payable": false,
      "stateMutability": "nonpayable",
      "type": "function"
    },
    {
      "constant": false,
      "inputs": [
        {
          "internalType": "bytes32",
          "name": "_myid",
          "type": "bytes32"
        },
        {
          "internalType": "string",
          "name": "_result",
          "type": "string"
        },
        {
          "internalType": "bytes",
          "name": "_proof",
          "type": "bytes"
        }
      ],
      "name": "__callback",
      "outputs": [],
      "payable": false,
      "stateMutability": "nonpayable",
      "type": "function"
    },
    {
      "constant": false,
      "inputs": [
        {
          "internalType": "address",
          "name": "to",
          "type": "address"
        },
        {
          "internalType": "uint256",
          "name": "tokenId",
          "type": "uint256"
        }
      ],
      "name": "approve",
      "outputs": [],
      "payable": false,
      "stateMutability": "nonpayable",
      "type": "function"
    },
    {
      "constant": true,
      "inputs": [
        {
          "internalType": "address",
          "name": "owner",
          "type": "address"
        }
      ],
      "name": "balanceOf",
      "outputs": [
        {
          "internalType": "uint256",
          "name": "",
          "type": "uint256"
        }
      ],
      "payable": false,
      "stateMutability": "view",
      "type": "function"
    },
    {
      "constant": true,
      "inputs": [
        {
          "internalType": "uint256",
          "name": "tokenId",
          "type": "uint256"
        }
      ],
      "name": "getApproved",
      "outputs": [
        {
          "internalType": "address",
          "name": "",
          "type": "address"
        }
      ],
      "payable": false,
      "stateMutability": "view",
      "type": "function"
    },
    {
      "constant": true,
      "inputs": [],
      "name": "getBasetokenURI",
      "outputs": [
        {
          "internalType": "string",
          "name": "",
          "type": "string"
        }
      ],
      "payable": false,
      "stateMutability": "view",
      "type": "function"
    },
    {
      "constant": true,
      "inputs": [
        {
          "internalType": "uint256",
          "name": "tokenId",
          "type": "uint256"
        }
      ],
      "name": "getCompletetokenURI",
      "outputs": [
        {
          "internalType": "string",
          "name": "",
          "type": "string"
        }
      ],
      "payable": false,
      "stateMutability": "view",
      "type": "function"
    },
    {
      "constant": true,
      "inputs": [],
      "name": "getContractOwner",
      "outputs": [
        {
          "internalType": "address",
          "name": "",
          "type": "address"
        }
      ],
      "payable": false,
      "stateMutability": "view",
      "type": "function"
    },
    {
      "constant": true,
      "inputs": [],
      "name": "getTokenName",
      "outputs": [
        {
          "internalType": "string",
          "name": "",
          "type": "string"
        }
      ],
      "payable": false,
      "stateMutability": "view",
      "type": "function"
    },
    {
      "constant": true,
      "inputs": [],
      "name": "getTokenSymbol",
      "outputs": [
        {
          "internalType": "string",
          "name": "",
          "type": "string"
        }
      ],
      "payable": false,
      "stateMutability": "view",
      "type": "function"
    },
    {
      "constant": true,
      "inputs": [
        {
          "internalType": "address",
          "name": "owner",
          "type": "address"
        },
        {
          "internalType": "address",
          "name": "operator",
          "type": "address"
        }
      ],
      "name": "isApprovedForAll",
      "outputs": [
        {
          "internalType": "bool",
          "name": "",
          "type": "bool"
        }
      ],
      "payable": false,
      "stateMutability": "view",
      "type": "function"
    },
    {
      "constant": false,
      "inputs": [
        {
          "internalType": "address",
          "name": "to",
          "type": "address"
        },
        {
          "internalType": "uint256",
          "name": "tokenId",
          "type": "uint256"
        }
      ],
      "name": "mint",
      "outputs": [
        {
          "internalType": "bool",
          "name": "",
          "type": "bool"
        }
      ],
      "payable": false,
      "stateMutability": "nonpayable",
      "type": "function"
    },
    {
      "constant": true,
      "inputs": [
        {
          "internalType": "uint256",
          "name": "tokenId",
          "type": "uint256"
        }
      ],
      "name": "ownerOf",
      "outputs": [
        {
          "internalType": "address",
          "name": "",
          "type": "address"
        }
      ],
      "payable": false,
      "stateMutability": "view",
      "type": "function"
    },
    {
      "constant": false,
      "inputs": [
        {
          "internalType": "address",
          "name": "from",
          "type": "address"
        },
        {
          "internalType": "address",
          "name": "to",
          "type": "address"
        },
        {
          "internalType": "uint256",
          "name": "tokenId",
          "type": "uint256"
        }
      ],
      "name": "safeTransferFrom",
      "outputs": [],
      "payable": false,
      "stateMutability": "nonpayable",
      "type": "function"
    },
    {
      "constant": false,
      "inputs": [
        {
          "internalType": "address",
          "name": "from",
          "type": "address"
        },
        {
          "internalType": "address",
          "name": "to",
          "type": "address"
        },
        {
          "internalType": "uint256",
          "name": "tokenId",
          "type": "uint256"
        },
        {
          "internalType": "bytes",
          "name": "_data",
          "type": "bytes"
        }
      ],
      "name": "safeTransferFrom",
      "outputs": [],
      "payable": false,
      "stateMutability": "nonpayable",
      "type": "function"
    },
    {
      "constant": false,
      "inputs": [
        {
          "internalType": "address",
          "name": "to",
          "type": "address"
        },
        {
          "internalType": "bool",
          "name": "approved",
          "type": "bool"
        }
      ],
      "name": "setApprovalForAll",
      "outputs": [],
      "payable": false,
      "stateMutability": "nonpayable",
      "type": "function"
    },
    {
      "constant": false,
      "inputs": [
        {
          "internalType": "bool",
          "name": "newStatus",
          "type": "bool"
        }
      ],
      "name": "setPausedStatus",
      "outputs": [],
      "payable": false,
      "stateMutability": "nonpayable",
      "type": "function"
    },
    {
      "constant": true,
      "inputs": [],
      "name": "squareVerifier",
      "outputs": [
        {
          "internalType": "contract SquareVerifier",
          "name": "",
          "type": "address"
        }
      ],
      "payable": false,
      "stateMutability": "view",
      "type": "function"
    },
    {
      "constant": true,
      "inputs": [
        {
          "internalType": "bytes4",
          "name": "interfaceId",
          "type": "bytes4"
        }
      ],
      "name": "supportsInterface",
      "outputs": [
        {
          "internalType": "bool",
          "name": "",
          "type": "bool"
        }
      ],
      "payable": false,
      "stateMutability": "view",
      "type": "function"
    },
    {
      "constant": true,
      "inputs": [
        {
          "internalType": "uint256",
          "name": "index",
          "type": "uint256"
        }
      ],
      "name": "tokenByIndex",
      "outputs": [
        {
          "internalType": "uint256",
          "name": "",
          "type": "uint256"
        }
      ],
      "payable": false,
      "stateMutability": "view",
      "type": "function"
    },
    {
      "constant": true,
      "inputs": [
        {
          "internalType": "address",
          "name": "owner",
          "type": "address"
        },
        {
          "internalType": "uint256",
          "name": "index",
          "type": "uint256"
        }
      ],
      "name": "tokenOfOwnerByIndex",
      "outputs": [
        {
          "internalType": "uint256",
          "name": "",
          "type": "uint256"
        }
      ],
      "payable": false,
      "stateMutability": "view",
      "type": "function"
    },
    {
      "constant": true,
      "inputs": [],
      "name": "totalSupply",
      "outputs": [
        {
          "internalType": "uint256",
          "name": "",
          "type": "uint256"
        }
      ],
      "payable": false,
      "stateMutability": "view",
      "type": "function"
    },
    {
      "constant": false,
      "inputs": [
        {
          "internalType": "address",
          "name": "from",
          "type": "address"
        },
        {
          "internalType": "address",
          "name": "to",
          "type": "address"
        },
        {
          "internalType": "uint256",
          "name": "tokenId",
          "type": "uint256"
        }
      ],
      "name": "transferFrom",
      "outputs": [],
      "payable": false,
      "stateMutability": "nonpayable",
      "type": "function"
    },
    {
      "constant": false,
      "inputs": [
        {
          "internalType": "address",
          "name": "newOwner",
          "type": "address"
        }
      ],
      "name": "transferOwnership",
      "outputs": [],
      "payable": false,
      "stateMutability": "nonpayable",
      "type": "function"
    },
    {
      "constant": false,
      "inputs": [],
      "name": "getGlobalIndexCounter",
      "outputs": [
        {
          "internalType": "uint256",
          "name": "",
          "type": "uint256"
        }
      ],
      "payable": false,
      "stateMutability": "nonpayable",
      "type": "function"
    },
    {
      "constant": false,
      "inputs": [
        {
          "internalType": "string",
          "name": "tokenName",
          "type": "string"
        },
        {
          "internalType": "string",
          "name": "tokenSymbol",
          "type": "string"
        },
        {
          "internalType": "uint256",
          "name": "tokenId",
          "type": "uint256"
        },
        {
          "internalType": "uint256[2]",
          "name": "a",
          "type": "uint256[2]"
        },
        {
          "internalType": "uint256[2][2]",
          "name": "b",
          "type": "uint256[2][2]"
        },
        {
          "internalType": "uint256[2]",
          "name": "c",
          "type": "uint256[2]"
        },
        {
          "internalType": "uint256[2]",
          "name": "input",
          "type": "uint256[2]"
        }
      ],
      "name": "mintNFT",
      "outputs": [
        {
          "internalType": "address",
          "name": "",
          "type": "address"
        }
      ],
      "payable": false,
      "stateMutability": "nonpayable",
      "type": "function"
    }
  ],
  "bytecode": "0x60806040523480156200001157600080fd5b506040516200416f3803806200416f833981810160405260608110156200003757600080fd5b8101908080519060200190929190805160405193929190846401000000008211156200006257600080fd5b838201915060208201858111156200007957600080fd5b82518660018202830111640100000000821117156200009757600080fd5b8083526020830192505050908051906020019080838360005b83811015620000cd578082015181840152602081019050620000b0565b50505050905090810190601f168015620000fb5780820380516001836020036101000a031916815260200191505b50604052602001805160405193929190846401000000008211156200011f57600080fd5b838201915060208201858111156200013657600080fd5b82518660018202830111640100000000821117156200015457600080fd5b8083526020830192505050908051906020019080838360005b838110156200018a5780820151818401526020810190506200016d565b50505050905090810190601f168015620001b85780820380516001836020036101000a031916815260200191505b50604052505050818181816040518060600160405280603f815260200162004130603f9139336000806101000a81548173ffffffffffffffffffffffffffffffffffffffff021916908373ffffffffffffffffffffffffffffffffffffffff1602179055507fac9a252a3ed2d3fcc198677953ffe98ac492e191a4605978c655f8ce4ae8067633604051808273ffffffffffffffffffffffffffffffffffffffff1673ffffffffffffffffffffffffffffffffffffffff16815260200191505060405180910390a160008060146101000a81548160ff021916908315150217905550620002b26301ffc9a760e01b6200039c60201b60201c565b620002ca6380ac58cd60e01b6200039c60201b60201c565b620002e263780e9d6360e01b6200039c60201b60201c565b82600f9080519060200190620002fa9291906200043c565b508160109080519060200190620003139291906200043c565b5080601190805190602001906200032c9291906200043c565b5062000345635b5e139f60e01b6200039c60201b60201c565b5050505050600060148190555082601360006101000a81548173ffffffffffffffffffffffffffffffffffffffff021916908373ffffffffffffffffffffffffffffffffffffffff160217905550505050620004eb565b63ffffffff60e01b817bffffffffffffffffffffffffffffffffffffffffffffffffffffffff19161415620003d057600080fd5b6001806000837bffffffffffffffffffffffffffffffffffffffffffffffffffffffff19167bffffffffffffffffffffffffffffffffffffffffffffffffffffffff1916815260200190815260200160002060006101000a81548160ff02191690831515021790555050565b828054600181600116156101000203166002900490600052602060002090601f016020900481019282601f106200047f57805160ff1916838001178555620004b0565b82800160010185558215620004b0579182015b82811115620004af57825182559160200191906001019062000492565b5b509050620004bf9190620004c3565b5090565b620004e891905b80821115620004e4576000816000905550600101620004ca565b5090565b90565b613c3580620004fb6000396000f3fe608060405234801561001057600080fd5b506004361061018d5760003560e01c80634c1b1c93116100de578063b62e44f311610097578063bd018af911610071578063bd018af914610db4578063e985e9c514610e5b578063f1850af814610ed7578063f2fde38b14610f5a5761018d565b8063b62e44f314610c0e578063b88d4fde14610c2c578063bb28beb314610d315761018d565b80634c1b1c93146109e95780634f6ccce714610a335780636352211e14610a7557806370a0823114610ae3578063862b092b14610b3b578063a22cb46514610bbe5761018d565b806323b872dd1161014b57806338bbfa501161012557806338bbfa501461076f57806340c10f19146108cb57806342842e0e14610931578063442890d51461099f5761018d565b806323b872dd146105da57806327dc297e146106485780632f745c591461070d5761018d565b8062370c081461019257806301ffc9a7146101c257806305f56fb114610227578063081812fc14610500578063095ea7b31461056e57806318160ddd146105bc575b600080fd5b6101c0600480360360208110156101a857600080fd5b81019080803515159060200190929190505050610f9e565b005b61020d600480360360208110156101d857600080fd5b8101908080357bffffffffffffffffffffffffffffffffffffffffffffffffffffffff19169060200190929190505050611132565b604051808215151515815260200191505060405180910390f35b6104be60048036036101a081101561023e57600080fd5b810190808035906020019064010000000081111561025b57600080fd5b82018360208201111561026d57600080fd5b8035906020019184600183028401116401000000008311171561028f57600080fd5b91908080601f016020809104026020016040519081016040528093929190818152602001838380828437600081840152601f19601f820116905080830192505050505050509192919290803590602001906401000000008111156102f257600080fd5b82018360208201111561030457600080fd5b8035906020019184600183028401116401000000008311171561032657600080fd5b91908080601f016020809104026020016040519081016040528093929190818152602001838380828437600081840152601f19601f8201169050808301925050505050505091929192908035906020019092919080604001906002806020026040519081016040528092919082600260200280828437600081840152601f19601f82011690508083019250505050505091929192908060800190600280602002604051908101604052809291906000905b8282101561042b578382604002016002806020026040519081016040528092919082600260200280828437600081840152601f19601f820116905080830192505050505050815260200190600101906103d7565b50505050919291929080604001906002806020026040519081016040528092919082600260200280828437600081840152601f19601f820116905080830192505050505050919291929080604001906002806020026040519081016040528092919082600260200280828437600081840152601f19601f820116905080830192505050505050919291929050505061119a565b604051808273ffffffffffffffffffffffffffffffffffffffff1673ffffffffffffffffffffffffffffffffffffffff16815260200191505060405180910390f35b61052c6004803603602081101561051657600080fd5b81019080803590602001909291905050506111ca565b604051808273ffffffffffffffffffffffffffffffffffffffff1673ffffffffffffffffffffffffffffffffffffffff16815260200191505060405180910390f35b6105ba6004803603604081101561058457600080fd5b81019080803573ffffffffffffffffffffffffffffffffffffffff169060200190929190803590602001909291905050506112d1565b005b6105c461150b565b6040518082815260200191505060405180910390f35b610646600480360360608110156105f057600080fd5b81019080803573ffffffffffffffffffffffffffffffffffffffff169060200190929190803573ffffffffffffffffffffffffffffffffffffffff16906020019092919080359060200190929190505050611584565b005b61070b6004803603604081101561065e57600080fd5b81019080803590602001909291908035906020019064010000000081111561068557600080fd5b82018360208201111561069757600080fd5b803590602001918460018302840111640100000000831117156106b957600080fd5b91908080601f016020809104026020016040519081016040528093929190818152602001838380828437600081840152601f19601f82011690508083019250505050505050919291929050505061167d565b005b6107596004803603604081101561072357600080fd5b81019080803573ffffffffffffffffffffffffffffffffffffffff169060200190929190803590602001909291905050506116c0565b6040518082815260200191505060405180910390f35b6108c96004803603606081101561078557600080fd5b8101908080359060200190929190803590602001906401000000008111156107ac57600080fd5b8201836020820111156107be57600080fd5b803590602001918460018302840111640100000000831117156107e057600080fd5b91908080601f016020809104026020016040519081016040528093929190818152602001838380828437600081840152601f19601f8201169050808301925050505050505091929192908035906020019064010000000081111561084357600080fd5b82018360208201111561085557600080fd5b8035906020019184600183028401116401000000008311171561087757600080fd5b91908080601f016020809104026020016040519081016040528093929190818152602001838380828437600081840152601f19601f82011690508083019250505050505050919291929050505061179f565b005b610917600480360360408110156108e157600080fd5b81019080803573ffffffffffffffffffffffffffffffffffffffff169060200190929190803590602001909291905050506117a4565b604051808215151515815260200191505060405180910390f35b61099d6004803603606081101561094757600080fd5b81019080803573ffffffffffffffffffffffffffffffffffffffff169060200190929190803573ffffffffffffffffffffffffffffffffffffffff169060200190929190803590602001909291905050506118d1565b005b6109a761195e565b604051808273ffffffffffffffffffffffffffffffffffffffff1673ffffffffffffffffffffffffffffffffffffffff16815260200191505060405180910390f35b6109f1611987565b604051808273ffffffffffffffffffffffffffffffffffffffff1673ffffffffffffffffffffffffffffffffffffffff16815260200191505060405180910390f35b610a5f60048036036020811015610a4957600080fd5b81019080803590602001909291905050506119ad565b6040518082815260200191505060405180910390f35b610aa160048036036020811015610a8b57600080fd5b8101908080359060200190929190505050611a4d565b604051808273ffffffffffffffffffffffffffffffffffffffff1673ffffffffffffffffffffffffffffffffffffffff16815260200191505060405180910390f35b610b2560048036036020811015610af957600080fd5b81019080803573ffffffffffffffffffffffffffffffffffffffff169060200190929190505050611af6565b6040518082815260200191505060405180910390f35b610b43611bb2565b6040518080602001828103825283818151815260200191508051906020019080838360005b83811015610b83578082015181840152602081019050610b68565b50505050905090810190601f168015610bb05780820380516001836020036101000a031916815260200191505b509250505060405180910390f35b610c0c60048036036040811015610bd457600080fd5b81019080803573ffffffffffffffffffffffffffffffffffffffff169060200190929190803515159060200190929190505050611c54565b005b610c16611dfb565b6040518082815260200191505060405180910390f35b610d2f60048036036080811015610c4257600080fd5b81019080803573ffffffffffffffffffffffffffffffffffffffff169060200190929190803573ffffffffffffffffffffffffffffffffffffffff1690602001909291908035906020019092919080359060200190640100000000811115610ca957600080fd5b820183602082011115610cbb57600080fd5b80359060200191846001830284011164010000000083111715610cdd57600080fd5b91908080601f016020809104026020016040519081016040528093929190818152602001838380828437600081840152601f19601f820116905080830192505050505050509192919290505050611e05565b005b610d39611f01565b6040518080602001828103825283818151815260200191508051906020019080838360005b83811015610d79578082015181840152602081019050610d5e565b50505050905090810190601f168015610da65780820380516001836020036101000a031916815260200191505b509250505060405180910390f35b610de060048036036020811015610dca57600080fd5b8101908080359060200190929190505050611fa3565b6040518080602001828103825283818151815260200191508051906020019080838360005b83811015610e20578082015181840152602081019050610e05565b50505050905090810190601f168015610e4d5780820380516001836020036101000a031916815260200191505b509250505060405180910390f35b610ebd60048036036040811015610e7157600080fd5b81019080803573ffffffffffffffffffffffffffffffffffffffff169060200190929190803573ffffffffffffffffffffffffffffffffffffffff16906020019092919050505061206a565b604051808215151515815260200191505060405180910390f35b610edf61216a565b6040518080602001828103825283818151815260200191508051906020019080838360005b83811015610f1f578082015181840152602081019050610f04565b50505050905090810190601f168015610f4c5780820380516001836020036101000a031916815260200191505b509250505060405180910390f35b610f9c60048036036020811015610f7057600080fd5b81019080803573ffffffffffffffffffffffffffffffffffffffff16906020019092919050505061220c565b005b6000809054906101000a900473ffffffffffffffffffffffffffffffffffffffff1673ffffffffffffffffffffffffffffffffffffffff163373ffffffffffffffffffffffffffffffffffffffff1614611043576040517f08c379a000000000000000000000000000000000000000000000000000000000815260040180806020018281038252602e815260200180613afc602e913960400191505060405180910390fd5b80600060146101000a81548160ff02191690831515021790555080156110cb577f62e78cea01bee320cd4e420270b5ea74000d11b0c9f74754ebdbfc544b05a25833604051808273ffffffffffffffffffffffffffffffffffffffff1673ffffffffffffffffffffffffffffffffffffffff16815260200191505060405180910390a161112f565b7f5db9ee0a495bf2e6ff9c91a7834c1ba4fdd244a5e8aa4e537bd38aeae4b073aa33604051808273ffffffffffffffffffffffffffffffffffffffff1673ffffffffffffffffffffffffffffffffffffffff16815260200191505060405180910390a15b50565b600060016000837bffffffffffffffffffffffffffffffffffffffffffffffffffffffff19167bffffffffffffffffffffffffffffffffffffffffffffffffffffffff1916815260200190815260200160002060009054906101000a900460ff169050919050565b60006111a93386868686612357565b6111b333876117a4565b506111bd86611a4d565b9050979650505050505050565b60008060149054906101000a900460ff161515600115151415611238576040517f08c379a000000000000000000000000000000000000000000000000000000000815260040180806020018281038252603b815260200180613b4b603b913960400191505060405180910390fd5b61124182612701565b611296576040517f08c379a0000000000000000000000000000000000000000000000000000000008152600401808060200182810382526021815260200180613b2a6021913960400191505060405180910390fd5b6003600083815260200190815260200160002060009054906101000a900473ffffffffffffffffffffffffffffffffffffffff169050919050565b600060149054906101000a900460ff16151560011515141561133e576040517f08c379a000000000000000000000000000000000000000000000000000000000815260040180806020018281038252603b815260200180613b4b603b913960400191505060405180910390fd5b600061134861195e565b9050600061135583611a4d565b90506002600084815260200190815260200160002060009054906101000a900473ffffffffffffffffffffffffffffffffffffffff1673ffffffffffffffffffffffffffffffffffffffff168473ffffffffffffffffffffffffffffffffffffffff16141561140f576040517f08c379a0000000000000000000000000000000000000000000000000000000008152600401808060200182810382526026815260200180613bdb6026913960400191505060405180910390fd5b8173ffffffffffffffffffffffffffffffffffffffff163373ffffffffffffffffffffffffffffffffffffffff16148061144f575061144e813361206a565b5b61145857600080fd5b836003600085815260200190815260200160002060006101000a81548173ffffffffffffffffffffffffffffffffffffffff021916908373ffffffffffffffffffffffffffffffffffffffff160217905550828473ffffffffffffffffffffffffffffffffffffffff168273ffffffffffffffffffffffffffffffffffffffff167f8c5be1e5ebec7d5bd14f71427d1e84f3dd0314c0f7b2291e5b200ac8c7c3b92560405160405180910390a450505050565b60008060149054906101000a900460ff161515600115151415611579576040517f08c379a000000000000000000000000000000000000000000000000000000000815260040180806020018281038252603b815260200180613b4b603b913960400191505060405180910390fd5b600880549050905090565b600060149054906101000a900460ff1615156001151514156115f1576040517f08c379a000000000000000000000000000000000000000000000000000000000815260040180806020018281038252603b815260200180613b4b603b913960400191505060405180910390fd5b6115fb3382612773565b61166d576040517f08c379a00000000000000000000000000000000000000000000000000000000081526004018080602001828103825260158152602001807f63616c6c6572206e6f7420746865206f776e657221000000000000000000000081525060200191505060405180910390fd5b611678838383612808565b505050565b6116bc828260006040519080825280601f01601f1916602001820160405280156116b65781602001600182028038833980820191505090505b5061179f565b5050565b60008060149054906101000a900460ff16151560011515141561172e576040517f08c379a000000000000000000000000000000000000000000000000000000000815260040180806020018281038252603b815260200180613b4b603b913960400191505060405180910390fd5b61173783611af6565b821061174257600080fd5b600660008473ffffffffffffffffffffffffffffffffffffffff1673ffffffffffffffffffffffffffffffffffffffff168152602001908152602001600020828154811061178c57fe5b9060005260206000200154905092915050565b505050565b60008060149054906101000a900460ff161515600115151415611812576040517f08c379a000000000000000000000000000000000000000000000000000000000815260040180806020018281038252603b815260200180613b4b603b913960400191505060405180910390fd5b6000809054906101000a900473ffffffffffffffffffffffffffffffffffffffff1673ffffffffffffffffffffffffffffffffffffffff163373ffffffffffffffffffffffffffffffffffffffff16146118b7576040517f08c379a000000000000000000000000000000000000000000000000000000000815260040180806020018281038252602e815260200180613afc602e913960400191505060405180910390fd5b6118c1838361282c565b6118ca8261284d565b5092915050565b600060149054906101000a900460ff16151560011515141561193e576040517f08c379a000000000000000000000000000000000000000000000000000000000815260040180806020018281038252603b815260200180613b4b603b913960400191505060405180910390fd5b61195983838360405180602001604052806000815250611e05565b505050565b60008060009054906101000a900473ffffffffffffffffffffffffffffffffffffffff16905090565b601360009054906101000a900473ffffffffffffffffffffffffffffffffffffffff1681565b60008060149054906101000a900460ff161515600115151415611a1b576040517f08c379a000000000000000000000000000000000000000000000000000000000815260040180806020018281038252603b815260200180613b4b603b913960400191505060405180910390fd5b611a2361150b565b8210611a2e57600080fd5b60088281548110611a3b57fe5b90600052602060002001549050919050565b60008060149054906101000a900460ff161515600115151415611abb576040517f08c379a000000000000000000000000000000000000000000000000000000000815260040180806020018281038252603b815260200180613b4b603b913960400191505060405180910390fd5b6002600083815260200190815260200160002060009054906101000a900473ffffffffffffffffffffffffffffffffffffffff169050919050565b60008060149054906101000a900460ff161515600115151415611b64576040517f08c379a000000000000000000000000000000000000000000000000000000000815260040180806020018281038252603b815260200180613b4b603b913960400191505060405180910390fd5b611bab600460008473ffffffffffffffffffffffffffffffffffffffff1673ffffffffffffffffffffffffffffffffffffffff168152602001908152602001600020612948565b9050919050565b6060600f8054600181600116156101000203166002900480601f016020809104026020016040519081016040528092919081815260200182805460018160011615610100020316600290048015611c4a5780601f10611c1f57610100808354040283529160200191611c4a565b820191906000526020600020905b815481529060010190602001808311611c2d57829003601f168201915b5050505050905090565b600060149054906101000a900460ff161515600115151415611cc1576040517f08c379a000000000000000000000000000000000000000000000000000000000815260040180806020018281038252603b815260200180613b4b603b913960400191505060405180910390fd5b3373ffffffffffffffffffffffffffffffffffffffff168273ffffffffffffffffffffffffffffffffffffffff161415611cfa57600080fd5b80600560003373ffffffffffffffffffffffffffffffffffffffff1673ffffffffffffffffffffffffffffffffffffffff16815260200190815260200160002060008473ffffffffffffffffffffffffffffffffffffffff1673ffffffffffffffffffffffffffffffffffffffff16815260200190815260200160002060006101000a81548160ff0219169083151502179055508173ffffffffffffffffffffffffffffffffffffffff163373ffffffffffffffffffffffffffffffffffffffff167f17307eab39ab6107e8899845ad3d59bd9653f200f220920489ca2b5937696c3183604051808215151515815260200191505060405180910390a35050565b6000601454905090565b600060149054906101000a900460ff161515600115151415611e72576040517f08c379a000000000000000000000000000000000000000000000000000000000815260040180806020018281038252603b815260200180613b4b603b913960400191505060405180910390fd5b611e7d848484611584565b611e8984848484612956565b611efb576040517f08c379a000000000000000000000000000000000000000000000000000000000815260040180806020018281038252601c8152602001807f6661696c656420636865636b4f6e45524337323152656365697665640000000081525060200191505060405180910390fd5b50505050565b606060118054600181600116156101000203166002900480601f016020809104026020016040519081016040528092919081815260200182805460018160011615610100020316600290048015611f995780601f10611f6e57610100808354040283529160200191611f99565b820191906000526020600020905b815481529060010190602001808311611f7c57829003601f168201915b5050505050905090565b6060611fae82612701565b611fb757600080fd5b601260008381526020019081526020016000208054600181600116156101000203166002900480601f01602080910402602001604051908101604052809291908181526020018280546001816001161561010002031660029004801561205e5780601f106120335761010080835404028352916020019161205e565b820191906000526020600020905b81548152906001019060200180831161204157829003601f168201915b50505050509050919050565b60008060149054906101000a900460ff1615156001151514156120d8576040517f08c379a000000000000000000000000000000000000000000000000000000000815260040180806020018281038252603b815260200180613b4b603b913960400191505060405180910390fd5b600560008473ffffffffffffffffffffffffffffffffffffffff1673ffffffffffffffffffffffffffffffffffffffff16815260200190815260200160002060008373ffffffffffffffffffffffffffffffffffffffff1673ffffffffffffffffffffffffffffffffffffffff16815260200190815260200160002060009054906101000a900460ff16905092915050565b606060108054600181600116156101000203166002900480601f0160208091040260200160405190810160405280929190818152602001828054600181600116156101000203166002900480156122025780601f106121d757610100808354040283529160200191612202565b820191906000526020600020905b8154815290600101906020018083116121e557829003601f168201915b5050505050905090565b6000809054906101000a900473ffffffffffffffffffffffffffffffffffffffff1673ffffffffffffffffffffffffffffffffffffffff163373ffffffffffffffffffffffffffffffffffffffff16146122b1576040517f08c379a000000000000000000000000000000000000000000000000000000000815260040180806020018281038252602e815260200180613afc602e913960400191505060405180910390fd5b806000806101000a81548173ffffffffffffffffffffffffffffffffffffffff021916908373ffffffffffffffffffffffffffffffffffffffff1602179055507fac9a252a3ed2d3fcc198677953ffe98ac492e191a4605978c655f8ce4ae8067681604051808273ffffffffffffffffffffffffffffffffffffffff1673ffffffffffffffffffffffffffffffffffffffff16815260200191505060405180910390a150565b6000848484846040516020018085600260200280838360005b8381101561238b578082015181840152602081019050612370565b505050509050018460026000925b818410156123df5782846020020151600260200280838360005b838110156123ce5780820151818401526020810190506123b3565b505050509050019260010192612399565b9250505083600260200280838360005b8381101561240a5780820151818401526020810190506123ef565b5050505090500182600260200280838360005b8381101561243857808201518184015260208101905061241d565b50505050905001945050505050604051602081830303815290604052805190602001209050600061246882612b3f565b905060011515811515146124e4576040517f08c379a00000000000000000000000000000000000000000000000000000000081526004018080602001828103825260158152602001807f4e6f74206120756e6971756520736f6c7574696f6e000000000000000000000081525060200191505060405180910390fd5b6000601360009054906101000a900473ffffffffffffffffffffffffffffffffffffffff1673ffffffffffffffffffffffffffffffffffffffff1663621e9ec0888888886040518563ffffffff1660e01b81526004018085600260200280838360005b83811015612562578082015181840152602081019050612547565b505050509050018460026000925b818410156125b65782846020020151600260200280838360005b838110156125a557808201518184015260208101905061258a565b505050509050019260010192612570565b9250505083600260200280838360005b838110156125e15780820151818401526020810190506125c6565b5050505090500182600260200280838360005b8381101561260f5780820151818401526020810190506125f4565b50505050905001945050505050602060405180830381600087803b15801561263657600080fd5b505af115801561264a573d6000803e3d6000fd5b505050506040513d602081101561266057600080fd5b8101908080519060200190929190505050905060011515811515146126ed576040517f08c379a00000000000000000000000000000000000000000000000000000000081526004018080602001828103825260148152602001807f4e6f7420612076616c696420736f6c7574696f6e00000000000000000000000081525060200191505060405180910390fd5b6126f78884612ba4565b5050505050505050565b6000806002600084815260200190815260200160002060009054906101000a900473ffffffffffffffffffffffffffffffffffffffff169050600073ffffffffffffffffffffffffffffffffffffffff168173ffffffffffffffffffffffffffffffffffffffff161415915050919050565b60008061277f83611a4d565b90508073ffffffffffffffffffffffffffffffffffffffff168473ffffffffffffffffffffffffffffffffffffffff1614806127ee57508373ffffffffffffffffffffffffffffffffffffffff166127d6846111ca565b73ffffffffffffffffffffffffffffffffffffffff16145b806127ff57506127fe818561206a565b5b91505092915050565b612813838383612cb3565b61281d8382612f0e565b61282782826130ac565b505050565b6128368282613173565b61284082826130ac565b612849816132ef565b5050565b606061285882612701565b61286157600080fd5b606061286c8361333b565b9050606061291460118054600181600116156101000203166002900480601f0160208091040260200160405190810160405280929190818152602001828054600181600116156101000203166002900480156129095780601f106128de57610100808354040283529160200191612909565b820191906000526020600020905b8154815290600101906020018083116128ec57829003601f168201915b50505050508361346b565b90508060126000868152602001908152602001600020908051906020019061293d929190613a2a565b508092505050919050565b600081600001549050919050565b60006129778473ffffffffffffffffffffffffffffffffffffffff166134af565b6129845760019050612b37565b60008473ffffffffffffffffffffffffffffffffffffffff1663150b7a02338887876040518563ffffffff1660e01b8152600401808573ffffffffffffffffffffffffffffffffffffffff1673ffffffffffffffffffffffffffffffffffffffff1681526020018473ffffffffffffffffffffffffffffffffffffffff1673ffffffffffffffffffffffffffffffffffffffff16815260200183815260200180602001828103825283818151815260200191508051906020019080838360005b83811015612a5f578082015181840152602081019050612a44565b50505050905090810190601f168015612a8c5780820380516001836020036101000a031916815260200191505b5095505050505050602060405180830381600087803b158015612aae57600080fd5b505af1158015612ac2573d6000803e3d6000fd5b505050506040513d6020811015612ad857600080fd5b8101908080519060200190929190505050905063150b7a0260e01b7bffffffffffffffffffffffffffffffffffffffffffffffffffffffff1916817bffffffffffffffffffffffffffffffffffffffffffffffffffffffff1916149150505b949350505050565b6000806001905060008090505b60168054905081108015612b64575060011515821515145b15612b9a5760168181548110612b7657fe5b9060005260206000200154841415612b8d57600091505b8080600101915050612b4c565b8192505050919050565b6016819080600181540180825580915050906001820390600052602060002001600090919290919091505550604051806040016040528060145481526020018373ffffffffffffffffffffffffffffffffffffffff16815250601560008381526020019081526020016000206000820151816000015560208201518160010160006101000a81548173ffffffffffffffffffffffffffffffffffffffff021916908373ffffffffffffffffffffffffffffffffffffffff1602179055509050507f3198a238243ab0d4aeea80d0f4f55a6a0a8cccb4e2b5a96c21685d6fc317cc916014546040518082815260200191505060405180910390a16014600081548092919060010191905055505050565b612cbc81611a4d565b73ffffffffffffffffffffffffffffffffffffffff168373ffffffffffffffffffffffffffffffffffffffff1614612d3f576040517f08c379a0000000000000000000000000000000000000000000000000000000008152600401808060200182810382526031815260200180613baa6031913960400191505060405180910390fd5b600073ffffffffffffffffffffffffffffffffffffffff168273ffffffffffffffffffffffffffffffffffffffff161415612dc5576040517f08c379a0000000000000000000000000000000000000000000000000000000008152600401808060200182810382526024815260200180613b866024913960400191505060405180910390fd5b612dce816134fa565b612e15600460008573ffffffffffffffffffffffffffffffffffffffff1673ffffffffffffffffffffffffffffffffffffffff168152602001908152602001600020613625565b612e5c600460008473ffffffffffffffffffffffffffffffffffffffff1673ffffffffffffffffffffffffffffffffffffffff168152602001908152602001600020613648565b816002600083815260200190815260200160002060006101000a81548173ffffffffffffffffffffffffffffffffffffffff021916908373ffffffffffffffffffffffffffffffffffffffff160217905550808273ffffffffffffffffffffffffffffffffffffffff168473ffffffffffffffffffffffffffffffffffffffff167fddf252ad1be2c89b69c2b068fc378daa952ba7f163c4a11628f55a4df523b3ef60405160405180910390a4505050565b6000612f666001600660008673ffffffffffffffffffffffffffffffffffffffff1673ffffffffffffffffffffffffffffffffffffffff1681526020019081526020016000208054905061365e90919063ffffffff16565b9050600060076000848152602001908152602001600020549050818114613053576000600660008673ffffffffffffffffffffffffffffffffffffffff1673ffffffffffffffffffffffffffffffffffffffff1681526020019081526020016000208381548110612fd357fe5b9060005260206000200154905080600660008773ffffffffffffffffffffffffffffffffffffffff1673ffffffffffffffffffffffffffffffffffffffff168152602001908152602001600020838154811061302b57fe5b9060005260206000200181905550816007600083815260200190815260200160002081905550505b600660008573ffffffffffffffffffffffffffffffffffffffff1673ffffffffffffffffffffffffffffffffffffffff1681526020019081526020016000208054809190600190036130a59190613aaa565b5050505050565b600660008373ffffffffffffffffffffffffffffffffffffffff1673ffffffffffffffffffffffffffffffffffffffff168152602001908152602001600020805490506007600083815260200190815260200160002081905550600660008373ffffffffffffffffffffffffffffffffffffffff1673ffffffffffffffffffffffffffffffffffffffff1681526020019081526020016000208190806001815401808255809150509060018203906000526020600020016000909192909190915055505050565b6001151561318082612701565b151514156131f6576040517f08c379a00000000000000000000000000000000000000000000000000000000081526004018080602001828103825260148152602001807f746f6b656e20616c72656164792065786973747300000000000000000000000081525060200191505060405180910390fd5b816002600083815260200190815260200160002060006101000a81548173ffffffffffffffffffffffffffffffffffffffff021916908373ffffffffffffffffffffffffffffffffffffffff16021790555061328f600460008473ffffffffffffffffffffffffffffffffffffffff1673ffffffffffffffffffffffffffffffffffffffff168152602001908152602001600020613648565b808273ffffffffffffffffffffffffffffffffffffffff16600073ffffffffffffffffffffffffffffffffffffffff167fddf252ad1be2c89b69c2b068fc378daa952ba7f163c4a11628f55a4df523b3ef60405160405180910390a45050565b6008805490506009600083815260200190815260200160002081905550600881908060018154018082558091505090600182039060005260206000200160009091929091909150555050565b60606000821415613383576040518060400160405280600181526020017f30000000000000000000000000000000000000000000000000000000000000008152509050613466565b600082905060005b600082146133ad578080600101915050600a82816133a557fe5b04915061338b565b6060816040519080825280601f01601f1916602001820160405280156133e25781602001600182028038833980820191505090505b50905060006001830390508593505b6000841461345e57600a848161340357fe5b0660300160f81b8282806001900393508151811061341d57fe5b60200101907effffffffffffffffffffffffffffffffffffffffffffffffffffffffffffff1916908160001a905350600a848161345657fe5b0493506133f1565b819450505050505b919050565b60606134a783836040518060200160405280600081525060405180602001604052806000815250604051806020016040528060008152506136a8565b905092915050565b60008060007fc5d2460186f7233c927e7db2dcc703c0e500b653ca82273b7bfad8045d85a47060001b9050833f91508082141580156134f157506000801b8214155b92505050919050565b600060149054906101000a900460ff161515600115151415613567576040517f08c379a000000000000000000000000000000000000000000000000000000000815260040180806020018281038252603b815260200180613b4b603b913960400191505060405180910390fd5b600073ffffffffffffffffffffffffffffffffffffffff166003600083815260200190815260200160002060009054906101000a900473ffffffffffffffffffffffffffffffffffffffff1673ffffffffffffffffffffffffffffffffffffffff16146136225760006003600083815260200190815260200160002060006101000a81548173ffffffffffffffffffffffffffffffffffffffff021916908373ffffffffffffffffffffffffffffffffffffffff1602179055505b50565b61363d6001826000015461365e90919063ffffffff16565b816000018190555050565b6001816000016000828254019250508190555050565b60006136a083836040518060400160405280601e81526020017f536166654d6174683a207375627472616374696f6e206f766572666c6f77000081525061396a565b905092915050565b6060808690506060869050606086905060608690506060869050606081518351855187518951010101016040519080825280601f01601f1916602001820160405280156137045781602001600182028038833980820191505090505b509050606081905060008090506000809050600090505b88518110156137895788818151811061373057fe5b602001015160f81c60f81b83838060010194508151811061374d57fe5b60200101907effffffffffffffffffffffffffffffffffffffffffffffffffffffffffffff1916908160001a905350808060010191505061371b565b600090505b87518110156137fc578781815181106137a357fe5b602001015160f81c60f81b8383806001019450815181106137c057fe5b60200101907effffffffffffffffffffffffffffffffffffffffffffffffffffffffffffff1916908160001a905350808060010191505061378e565b600090505b865181101561386f5786818151811061381657fe5b602001015160f81c60f81b83838060010194508151811061383357fe5b60200101907effffffffffffffffffffffffffffffffffffffffffffffffffffffffffffff1916908160001a9053508080600101915050613801565b600090505b85518110156138e25785818151811061388957fe5b602001015160f81c60f81b8383806001019450815181106138a657fe5b60200101907effffffffffffffffffffffffffffffffffffffffffffffffffffffffffffff1916908160001a9053508080600101915050613874565b600090505b8451811015613955578481815181106138fc57fe5b602001015160f81c60f81b83838060010194508151811061391957fe5b60200101907effffffffffffffffffffffffffffffffffffffffffffffffffffffffffffff1916908160001a90535080806001019150506138e7565b82995050505050505050505095945050505050565b6000838311158290613a17576040517f08c379a00000000000000000000000000000000000000000000000000000000081526004018080602001828103825283818151815260200191508051906020019080838360005b838110156139dc5780820151818401526020810190506139c1565b50505050905090810190601f168015613a095780820380516001836020036101000a031916815260200191505b509250505060405180910390fd5b5060008385039050809150509392505050565b828054600181600116156101000203166002900490600052602060002090601f016020900481019282601f10613a6b57805160ff1916838001178555613a99565b82800160010185558215613a99579182015b82811115613a98578251825591602001919060010190613a7d565b5b509050613aa69190613ad6565b5090565b815481835581811115613ad157818360005260206000209182019101613ad09190613ad6565b5b505050565b613af891905b80821115613af4576000816000905550600101613adc565b5090565b9056fe6f6e6c792074686520636f6e7472616374206f776e65722063616e2063616c6c20746869732066756e6374696f6e53706563696669656420746f6b656e20494420646f6573206e6f7420657869737443616e6e6f74206578656375746520746869732066756e6374696f6e20626563617573652074686520636f6e7472616374206973207061757365645468652064657374696e6174696f6e2041646472657373206973206e6f742076616c696454686520736f757263652041646472657373206973206e6f74207468652063757272656e7420746f6b656e206f776e657243616e6e6f742066756c66696c20746869732063697263756c617220646570656e64656e6379a265627a7a723158208e6bdda680cae7c477409505d9ffc4454e5da921276862eba7eeba11aea0b1a364736f6c6343000511003268747470733a2f2f73332d75732d776573742d322e616d617a6f6e6177732e636f6d2f756461636974792d626c6f636b636861696e2f63617073746f6e652f",
  "source": "pragma solidity ^0.5.0;\r\n\r\nimport \"./ERC721Mintable.sol\";\r\nimport \"./SquareVerifier.sol\";\r\n\r\ncontract SolnSquareVerifier is MintableNft {\r\n\r\n    SquareVerifier public squareVerifier;\r\n\r\n    uint256 globalIndexCounter;\r\n\r\n    struct Solution\r\n    {\r\n        uint256 index;\r\n        address verifierAddress;\r\n    }\r\n    \r\n\r\n    mapping(bytes32 => Solution) mappingSolutions;\r\n    // mapping(uint256 => bytes32) solutionIndex;\r\n    bytes32[] solutionArray;\r\n\r\n    constructor(address squareVerifierAddress,\r\n                string memory tokenName, \r\n                string memory tokenSymbol) public\r\n                MintableNft(tokenName, tokenSymbol)\r\n    {\r\n        globalIndexCounter = 0;\r\n        squareVerifier = SquareVerifier(squareVerifierAddress);\r\n    }\r\n\r\n    function getGlobalIndexCounter() public returns (uint256){\r\n        return globalIndexCounter;\r\n    }\r\n\r\n    function checkForUniqueSolution(bytes32 solutionKey) internal returns (bool) {\r\n        bool uniqueSolution = true;\r\n        uint256 i = 0;\r\n        while (i < solutionArray.length && uniqueSolution == true)\r\n        {\r\n            if (solutionKey == solutionArray[i])\r\n            {\r\n                uniqueSolution = false;\r\n            }\r\n            i++;\r\n        }\r\n        return uniqueSolution;\r\n    }\r\n\r\n    event solutionAdded(uint256 index);\r\n    function addSolution(address inputAddress, bytes32 solutionKey) internal\r\n    {\r\n        solutionArray.push(solutionKey);\r\n        mappingSolutions[solutionKey] = Solution(globalIndexCounter, inputAddress);\r\n        emit solutionAdded(globalIndexCounter);\r\n        globalIndexCounter++;\r\n    }\r\n\r\n    function verifyProof(address inputAddress,\r\n                         uint[2] memory a,\r\n                         uint[2][2] memory b,\r\n                         uint[2] memory c,\r\n                         uint[2] memory input) \r\n                         internal\r\n    {\r\n        //FlightSurety reference\r\n        bytes32 solutionKey = keccak256(abi.encodePacked(a, b, c, input));\r\n        bool uniqueSolution = checkForUniqueSolution(solutionKey);\r\n        //Check for unique solution before continuing\r\n        require(uniqueSolution == true, \"Not a unique solution\");\r\n\r\n        bool valid = squareVerifier.verifyTx(a, b, c, input);\r\n        require(valid == true, \"Not a valid solution\");\r\n\r\n        addSolution(inputAddress, solutionKey);\r\n    }\r\n\r\n    function mintNFT(string memory tokenName, \r\n                    string memory tokenSymbol,\r\n                    uint256 tokenId,\r\n                    uint[2] memory a,\r\n                    uint[2][2] memory b,\r\n                    uint[2] memory c,\r\n                    uint[2] memory input)\r\n                    public returns (address)\r\n    {\r\n        verifyProof(msg.sender, a, b, c, input);\r\n        super.mint(msg.sender, tokenId);\r\n        return ownerOf(tokenId);\r\n    }\r\n}\r\n\r\n  \r\n\r\n\r\n\r\n\r\n\r\n\r\n\r\n\r\n\r\n\r\n\r\n\r\n\r\n\r\n\r\n\r\n\r\n\r\n\r\n\r\n\r\n\r\n\r\n\r\n\r\n\r\n",
  "sourcePath": "C:\\Users\\londo\\Documents\\GitHub\\Blockchain-Capstone\\eth-contracts\\contracts\\SolnSquareVerifier.sol",
  "compiler": {
    "name": "solc",
    "version": "0.5.17+commit.d19bba13.Emscripten.clang"
  },
  "schemaVersion": "3.4.3",
  "updatedAt": "2022-03-05T08:21:48.291Z",
  "devdoc": {
    "methods": {
      "isApprovedForAll(address,address)": {
        "details": "Tells whether an operator is approved by a given owner",
        "params": {
          "operator": "operator address which you want to query the approval of",
          "owner": "owner address which you want to query the approval of"
        },
        "return": "bool whether the given operator is approved by the given owner"
      },
      "setApprovalForAll(address,bool)": {
        "details": "Sets or unsets the approval of a given operator An operator is allowed to transfer all tokens of the sender on their behalf",
        "params": {
          "approved": "representing the status of the approval to be set",
          "to": "operator address to set the approval"
        }
      },
      "supportsInterface(bytes4)": {
        "details": "implement supportsInterface(bytes4) using a lookup table"
      },
      "tokenByIndex(uint256)": {
        "details": "Gets the token ID at a given index of all the tokens in this contract Reverts if the index is greater or equal to the total number of tokens",
        "params": {
          "index": "uint256 representing the index to be accessed of the tokens list"
        },
        "return": "uint256 token ID at the given index of the tokens list"
      },
      "tokenOfOwnerByIndex(address,uint256)": {
        "details": "Gets the token ID at a given index of the tokens list of the requested owner",
        "params": {
          "index": "uint256 representing the index to be accessed of the requested tokens list",
          "owner": "address owning the tokens list to be accessed"
        },
        "return": "uint256 token ID at the given index of the tokens list owned by the requested address"
      },
      "totalSupply()": {
        "details": "Gets the total amount of tokens stored by the contract",
        "return": "uint256 representing the total amount of tokens"
      }
    }
  },
  "userdoc": {
    "methods": {}
  }
}