{
	"data": {
		"bytecode": {
			"linkReferences": {},
			"object": "610aa8610028600b82828239805160001a607314151561001b57fe5b30600052607381538281f3fe730000000000000000000000000000000000000000301460806040526004361061004b5760003560e01c806355a3e90f1461005057806361a931ec1461006a578063b73ab75d146100d8575b600080fd5b61005861010d565b60408051918252519081900360200190f35b6100b2600480360361010081101561008157600080fd5b5080359060208101359060408101359060608101359060808101359060a08101359060c08101359060e0013561011f565b604080519485526020850193909352838301919091526060830152519081900360800190f35b6100b2600480360360a08110156100ee57600080fd5b508035906020810135906040810135906060810135906080013561026d565b600080516020610a5d83398151915290565b60008080808b15801561013057508a155b801561013a575089155b8015610144575088155b156101935787158015610155575086155b801561015f575085155b8015610169575084155b15156101835761017b888888886102f6565b151561018357fe5b508692508591508490508361025e565b8715801561019f575086155b80156101a9575085155b80156101b3575084155b156101dc576101c48c8c8c8c6102f6565b15156101cc57fe5b508a92508991508890508761025e565b6101e88c8c8c8c6102f6565b15156101f057fe5b6101fc888888886102f6565b151561020457fe5b61020c610a3e565b6102248d8d8d8d600160008f8f8f8f600160006103ab565b90506102548160005b602090810291909101519083015160408401516060850151608086015160a0870151610634565b9450945094509450505b98509850985098945050505050565b6000808080600188158015610280575087155b801561028a575086155b8015610294575085155b156102a857506001975087955060006102bc565b6102b4898989896102f6565b15156102bc57fe5b6102c4610a3e565b6102d48b8b8b8b8b87600061067e565b90506102e181600061022d565b929e919d509b50909950975050505050505050565b600080600080600061030a878789896106fa565b909450925061031b898981816106fa565b909250905061032c82828b8b6106fa565b909250905061033d8484848461076b565b909450925061038d84847f2b149d40ceb8aaae81be18991be06ac3b5b4c5e559dbefa33267e6dc24a138e57e9713b03af0fed4cd2cafadeed8fdf4a74fa084e52d1852e4a2bd0685c315d261076b565b90945092508315801561039e575082155b9998505050505050505050565b6103b3610a3e565b881580156103bf575087155b15610401578686868686868660005b60a08901929092526080880192909252606087019290925260408601929092526020858101939093529091020152610624565b8215801561040d575081155b15610420578c8c8c8c8c8c8660006103ce565b61042c85858b8b6106fa565b909550935061043d8b8b85856106fa565b6060830152604082015261045387878b8b6106fa565b90975095506104648d8d85856106fa565b60a08301526080820181905287148015610481575060a081015186145b156104c65760408101518514801561049c5750606081015184145b156104b7576104af8d8d8d8d8d8d6107ad565b8660006103ce565b600160008181808086816103ce565b6104d2898985856106fa565b90935091506104f2858583600260200201518460035b602002015161076b565b909d509b5061050c878783600460200201518460056104e8565b909b50995061051d8b8b81816106fa565b909950975061053d898983600460200201518460055b60200201516106fa565b909550935061054e89898d8d6106fa565b909950975061055f898985856106fa565b60a083015260808201526105758d8d81816106fa565b9097509550610586878785856106fa565b909750955061059787878b8b61076b565b90975095506105a88585600261091c565b90935091506105b98787858561076b565b90975095506105ca8b8b89896106fa565b602083015281526105dd8585898961076b565b909b5099506105ee8d8d8d8d6106fa565b909b50995061060889898360026020020151846003610533565b909d509b506106198b8b8f8f61076b565b606083015260408201525b9c9b505050505050505050505050565b600080600080600080610647888861094f565b90925090506106588c8c84846106fa565b90965094506106698a8a84846106fa565b969d959c509a50949850929650505050505050565b610686610a3e565b87156106ef5760018816156106c7578051602082015160408301516060840151608085015160a08601516106c49594939291908d8d8d8d8d8d6103ab565b90505b6106d58787878787876107ad565b949b50929950909750955093509150600288049750610686565b979650505050505050565b600080610738600080516020610a5d833981519152858809600080516020610a5d833981519152858809600080516020610a5d8339815191526109d2565b600080516020610a5d83398151915280868809600080516020610a5d833981519152868a09089150915094509492505050565b6000806107878685600080516020610a5d8339815191526109d2565b6107a08685600080516020610a5d8339815191526109d2565b9150915094509492505050565b6000806000806000806107c28c8c600361091c565b90965094506107d386868e8e6106fa565b90965094506107e48a8a8a8a6106fa565b90985096506107f58c8c8c8c6106fa565b909450925061080684848a8a6106fa565b9094509250610817868681816106fa565b909c509a506108288484600861091c565b90925090506108398c8c848461076b565b909c509a5061084a888881816106fa565b909250905061085b8484600461091c565b909450925061086c84848e8e61076b565b909450925061087d848488886106fa565b909450925061088e8a8a600861091c565b909650945061089f86868c8c6106fa565b90965094506108b0868684846106fa565b90965094506108c18484888861076b565b90945092506108d28c8c600261091c565b90965094506108e386868a8a6106fa565b90965094506108f4888884846106fa565b90925090506109058282600861091c565b809250819350505096509650965096509650969050565b600080600080516020610a5d833981519152838609600080516020610a5d83398151915284860991509150935093915050565b60008080610990600080516020610a5d83398151915280878809600080516020610a5d83398151915287880908600080516020610a5d8339815191526109eb565b9050600080516020610a5d833981519152818609600080516020610a5d833981519152828609600080516020610a5d8339815191520392509250509250929050565b6000818015156109de57fe5b8383038508949350505050565b60008060405160208152602080820152602060408201528460608201526002840360808201528360a082015260208160c08360056107d05a03fa905192509050801515610a3757600080fd5b5092915050565b6040518060c00160405280600690602082028038833950919291505056fe30644e72e131a029b85045b68181585d97816a916871ca8d3c208c16d87cfd47a165627a7a72305820654f1116412ea66f3388ec200bbff38b8bc315da0f16c081785b29299f318a990029",
			"opcodes": "PUSH2 0xAA8 PUSH2 0x28 PUSH1 0xB DUP3 DUP3 DUP3 CODECOPY DUP1 MLOAD PUSH1 0x0 BYTE PUSH1 0x73 EQ ISZERO ISZERO PUSH2 0x1B JUMPI INVALID JUMPDEST ADDRESS PUSH1 0x0 MSTORE PUSH1 0x73 DUP2 MSTORE8 DUP3 DUP2 RETURN INVALID PUSH20 0x0 ADDRESS EQ PUSH1 0x80 PUSH1 0x40 MSTORE PUSH1 0x4 CALLDATASIZE LT PUSH2 0x4B JUMPI PUSH1 0x0 CALLDATALOAD PUSH1 0xE0 SHR DUP1 PUSH4 0x55A3E90F EQ PUSH2 0x50 JUMPI DUP1 PUSH4 0x61A931EC EQ PUSH2 0x6A JUMPI DUP1 PUSH4 0xB73AB75D EQ PUSH2 0xD8 JUMPI JUMPDEST PUSH1 0x0 DUP1 REVERT JUMPDEST PUSH2 0x58 PUSH2 0x10D JUMP JUMPDEST PUSH1 0x40 DUP1 MLOAD SWAP2 DUP3 MSTORE MLOAD SWAP1 DUP2 SWAP1 SUB PUSH1 0x20 ADD SWAP1 RETURN JUMPDEST PUSH2 0xB2 PUSH1 0x4 DUP1 CALLDATASIZE SUB PUSH2 0x100 DUP2 LT ISZERO PUSH2 0x81 JUMPI PUSH1 0x0 DUP1 REVERT JUMPDEST POP DUP1 CALLDATALOAD SWAP1 PUSH1 0x20 DUP2 ADD CALLDATALOAD SWAP1 PUSH1 0x40 DUP2 ADD CALLDATALOAD SWAP1 PUSH1 0x60 DUP2 ADD CALLDATALOAD SWAP1 PUSH1 0x80 DUP2 ADD CALLDATALOAD SWAP1 PUSH1 0xA0 DUP2 ADD CALLDATALOAD SWAP1 PUSH1 0xC0 DUP2 ADD CALLDATALOAD SWAP1 PUSH1 0xE0 ADD CALLDATALOAD PUSH2 0x11F JUMP JUMPDEST PUSH1 0x40 DUP1 MLOAD SWAP5 DUP6 MSTORE PUSH1 0x20 DUP6 ADD SWAP4 SWAP1 SWAP4 MSTORE DUP4 DUP4 ADD SWAP2 SWAP1 SWAP2 MSTORE PUSH1 0x60 DUP4 ADD MSTORE MLOAD SWAP1 DUP2 SWAP1 SUB PUSH1 0x80 ADD SWAP1 RETURN JUMPDEST PUSH2 0xB2 PUSH1 0x4 DUP1 CALLDATASIZE SUB PUSH1 0xA0 DUP2 LT ISZERO PUSH2 0xEE JUMPI PUSH1 0x0 DUP1 REVERT JUMPDEST POP DUP1 CALLDATALOAD SWAP1 PUSH1 0x20 DUP2 ADD CALLDATALOAD SWAP1 PUSH1 0x40 DUP2 ADD CALLDATALOAD SWAP1 PUSH1 0x60 DUP2 ADD CALLDATALOAD SWAP1 PUSH1 0x80 ADD CALLDATALOAD PUSH2 0x26D JUMP JUMPDEST PUSH1 0x0 DUP1 MLOAD PUSH1 0x20 PUSH2 0xA5D DUP4 CODECOPY DUP2 MLOAD SWAP2 MSTORE SWAP1 JUMP JUMPDEST PUSH1 0x0 DUP1 DUP1 DUP1 DUP12 ISZERO DUP1 ISZERO PUSH2 0x130 JUMPI POP DUP11 ISZERO JUMPDEST DUP1 ISZERO PUSH2 0x13A JUMPI POP DUP10 ISZERO JUMPDEST DUP1 ISZERO PUSH2 0x144 JUMPI POP DUP9 ISZERO JUMPDEST ISZERO PUSH2 0x193 JUMPI DUP8 ISZERO DUP1 ISZERO PUSH2 0x155 JUMPI POP DUP7 ISZERO JUMPDEST DUP1 ISZERO PUSH2 0x15F JUMPI POP DUP6 ISZERO JUMPDEST DUP1 ISZERO PUSH2 0x169 JUMPI POP DUP5 ISZERO JUMPDEST ISZERO ISZERO PUSH2 0x183 JUMPI PUSH2 0x17B DUP9 DUP9 DUP9 DUP9 PUSH2 0x2F6 JUMP JUMPDEST ISZERO ISZERO PUSH2 0x183 JUMPI INVALID JUMPDEST POP DUP7 SWAP3 POP DUP6 SWAP2 POP DUP5 SWAP1 POP DUP4 PUSH2 0x25E JUMP JUMPDEST DUP8 ISZERO DUP1 ISZERO PUSH2 0x19F JUMPI POP DUP7 ISZERO JUMPDEST DUP1 ISZERO PUSH2 0x1A9 JUMPI POP DUP6 ISZERO JUMPDEST DUP1 ISZERO PUSH2 0x1B3 JUMPI POP DUP5 ISZERO JUMPDEST ISZERO PUSH2 0x1DC JUMPI PUSH2 0x1C4 DUP13 DUP13 DUP13 DUP13 PUSH2 0x2F6 JUMP JUMPDEST ISZERO ISZERO PUSH2 0x1CC JUMPI INVALID JUMPDEST POP DUP11 SWAP3 POP DUP10 SWAP2 POP DUP9 SWAP1 POP DUP8 PUSH2 0x25E JUMP JUMPDEST PUSH2 0x1E8 DUP13 DUP13 DUP13 DUP13 PUSH2 0x2F6 JUMP JUMPDEST ISZERO ISZERO PUSH2 0x1F0 JUMPI INVALID JUMPDEST PUSH2 0x1FC DUP9 DUP9 DUP9 DUP9 PUSH2 0x2F6 JUMP JUMPDEST ISZERO ISZERO PUSH2 0x204 JUMPI INVALID JUMPDEST PUSH2 0x20C PUSH2 0xA3E JUMP JUMPDEST PUSH2 0x224 DUP14 DUP14 DUP14 DUP14 PUSH1 0x1 PUSH1 0x0 DUP16 DUP16 DUP16 DUP16 PUSH1 0x1 PUSH1 0x0 PUSH2 0x3AB JUMP JUMPDEST SWAP1 POP PUSH2 0x254 DUP2 PUSH1 0x0 JUMPDEST PUSH1 0x20 SWAP1 DUP2 MUL SWAP2 SWAP1 SWAP2 ADD MLOAD SWAP1 DUP4 ADD MLOAD PUSH1 0x40 DUP5 ADD MLOAD PUSH1 0x60 DUP6 ADD MLOAD PUSH1 0x80 DUP7 ADD MLOAD PUSH1 0xA0 DUP8 ADD MLOAD PUSH2 0x634 JUMP JUMPDEST SWAP5 POP SWAP5 POP SWAP5 POP SWAP5 POP POP JUMPDEST SWAP9 POP SWAP9 POP SWAP9 POP SWAP9 SWAP5 POP POP POP POP POP JUMP JUMPDEST PUSH1 0x0 DUP1 DUP1 DUP1 PUSH1 0x1 DUP9 ISZERO DUP1 ISZERO PUSH2 0x280 JUMPI POP DUP8 ISZERO JUMPDEST DUP1 ISZERO PUSH2 0x28A JUMPI POP DUP7 ISZERO JUMPDEST DUP1 ISZERO PUSH2 0x294 JUMPI POP DUP6 ISZERO JUMPDEST ISZERO PUSH2 0x2A8 JUMPI POP PUSH1 0x1 SWAP8 POP DUP8 SWAP6 POP PUSH1 0x0 PUSH2 0x2BC JUMP JUMPDEST PUSH2 0x2B4 DUP10 DUP10 DUP10 DUP10 PUSH2 0x2F6 JUMP JUMPDEST ISZERO ISZERO PUSH2 0x2BC JUMPI INVALID JUMPDEST PUSH2 0x2C4 PUSH2 0xA3E JUMP JUMPDEST PUSH2 0x2D4 DUP12 DUP12 DUP12 DUP12 DUP12 DUP8 PUSH1 0x0 PUSH2 0x67E JUMP JUMPDEST SWAP1 POP PUSH2 0x2E1 DUP2 PUSH1 0x0 PUSH2 0x22D JUMP JUMPDEST SWAP3 SWAP15 SWAP2 SWAP14 POP SWAP12 POP SWAP1 SWAP10 POP SWAP8 POP POP POP POP POP POP POP POP JUMP JUMPDEST PUSH1 0x0 DUP1 PUSH1 0x0 DUP1 PUSH1 0x0 PUSH2 0x30A DUP8 DUP8 DUP10 DUP10 PUSH2 0x6FA JUMP JUMPDEST SWAP1 SWAP5 POP SWAP3 POP PUSH2 0x31B DUP10 DUP10 DUP2 DUP2 PUSH2 0x6FA JUMP JUMPDEST SWAP1 SWAP3 POP SWAP1 POP PUSH2 0x32C DUP3 DUP3 DUP12 DUP12 PUSH2 0x6FA JUMP JUMPDEST SWAP1 SWAP3 POP SWAP1 POP PUSH2 0x33D DUP5 DUP5 DUP5 DUP5 PUSH2 0x76B JUMP JUMPDEST SWAP1 SWAP5 POP SWAP3 POP PUSH2 0x38D DUP5 DUP5 PUSH32 0x2B149D40CEB8AAAE81BE18991BE06AC3B5B4C5E559DBEFA33267E6DC24A138E5 PUSH31 0x9713B03AF0FED4CD2CAFADEED8FDF4A74FA084E52D1852E4A2BD0685C315D2 PUSH2 0x76B JUMP JUMPDEST SWAP1 SWAP5 POP SWAP3 POP DUP4 ISZERO DUP1 ISZERO PUSH2 0x39E JUMPI POP DUP3 ISZERO JUMPDEST SWAP10 SWAP9 POP POP POP POP POP POP POP POP POP JUMP JUMPDEST PUSH2 0x3B3 PUSH2 0xA3E JUMP JUMPDEST DUP9 ISZERO DUP1 ISZERO PUSH2 0x3BF JUMPI POP DUP8 ISZERO JUMPDEST ISZERO PUSH2 0x401 JUMPI DUP7 DUP7 DUP7 DUP7 DUP7 DUP7 DUP7 PUSH1 0x0 JUMPDEST PUSH1 0xA0 DUP10 ADD SWAP3 SWAP1 SWAP3 MSTORE PUSH1 0x80 DUP9 ADD SWAP3 SWAP1 SWAP3 MSTORE PUSH1 0x60 DUP8 ADD SWAP3 SWAP1 SWAP3 MSTORE PUSH1 0x40 DUP7 ADD SWAP3 SWAP1 SWAP3 MSTORE PUSH1 0x20 DUP6 DUP2 ADD SWAP4 SWAP1 SWAP4 MSTORE SWAP1 SWAP2 MUL ADD MSTORE PUSH2 0x624 JUMP JUMPDEST DUP3 ISZERO DUP1 ISZERO PUSH2 0x40D JUMPI POP DUP2 ISZERO JUMPDEST ISZERO PUSH2 0x420 JUMPI DUP13 DUP13 DUP13 DUP13 DUP13 DUP13 DUP7 PUSH1 0x0 PUSH2 0x3CE JUMP JUMPDEST PUSH2 0x42C DUP6 DUP6 DUP12 DUP12 PUSH2 0x6FA JUMP JUMPDEST SWAP1 SWAP6 POP SWAP4 POP PUSH2 0x43D DUP12 DUP12 DUP6 DUP6 PUSH2 0x6FA JUMP JUMPDEST PUSH1 0x60 DUP4 ADD MSTORE PUSH1 0x40 DUP3 ADD MSTORE PUSH2 0x453 DUP8 DUP8 DUP12 DUP12 PUSH2 0x6FA JUMP JUMPDEST SWAP1 SWAP8 POP SWAP6 POP PUSH2 0x464 DUP14 DUP14 DUP6 DUP6 PUSH2 0x6FA JUMP JUMPDEST PUSH1 0xA0 DUP4 ADD MSTORE PUSH1 0x80 DUP3 ADD DUP2 SWAP1 MSTORE DUP8 EQ DUP1 ISZERO PUSH2 0x481 JUMPI POP PUSH1 0xA0 DUP2 ADD MLOAD DUP7 EQ JUMPDEST ISZERO PUSH2 0x4C6 JUMPI PUSH1 0x40 DUP2 ADD MLOAD DUP6 EQ DUP1 ISZERO PUSH2 0x49C JUMPI POP PUSH1 0x60 DUP2 ADD MLOAD DUP5 EQ JUMPDEST ISZERO PUSH2 0x4B7 JUMPI PUSH2 0x4AF DUP14 DUP14 DUP14 DUP14 DUP14 DUP14 PUSH2 0x7AD JUMP JUMPDEST DUP7 PUSH1 0x0 PUSH2 0x3CE JUMP JUMPDEST PUSH1 0x1 PUSH1 0x0 DUP2 DUP2 DUP1 DUP1 DUP7 DUP2 PUSH2 0x3CE JUMP JUMPDEST PUSH2 0x4D2 DUP10 DUP10 DUP6 DUP6 PUSH2 0x6FA JUMP JUMPDEST SWAP1 SWAP4 POP SWAP2 POP PUSH2 0x4F2 DUP6 DUP6 DUP4 PUSH1 0x2 PUSH1 0x20 MUL ADD MLOAD DUP5 PUSH1 0x3 JUMPDEST PUSH1 0x20 MUL ADD MLOAD PUSH2 0x76B JUMP JUMPDEST SWAP1 SWAP14 POP SWAP12 POP PUSH2 0x50C DUP8 DUP8 DUP4 PUSH1 0x4 PUSH1 0x20 MUL ADD MLOAD DUP5 PUSH1 0x5 PUSH2 0x4E8 JUMP JUMPDEST SWAP1 SWAP12 POP SWAP10 POP PUSH2 0x51D DUP12 DUP12 DUP2 DUP2 PUSH2 0x6FA JUMP JUMPDEST SWAP1 SWAP10 POP SWAP8 POP PUSH2 0x53D DUP10 DUP10 DUP4 PUSH1 0x4 PUSH1 0x20 MUL ADD MLOAD DUP5 PUSH1 0x5 JUMPDEST PUSH1 0x20 MUL ADD MLOAD PUSH2 0x6FA JUMP JUMPDEST SWAP1 SWAP6 POP SWAP4 POP PUSH2 0x54E DUP10 DUP10 DUP14 DUP14 PUSH2 0x6FA JUMP JUMPDEST SWAP1 SWAP10 POP SWAP8 POP PUSH2 0x55F DUP10 DUP10 DUP6 DUP6 PUSH2 0x6FA JUMP JUMPDEST PUSH1 0xA0 DUP4 ADD MSTORE PUSH1 0x80 DUP3 ADD MSTORE PUSH2 0x575 DUP14 DUP14 DUP2 DUP2 PUSH2 0x6FA JUMP JUMPDEST SWAP1 SWAP8 POP SWAP6 POP PUSH2 0x586 DUP8 DUP8 DUP6 DUP6 PUSH2 0x6FA JUMP JUMPDEST SWAP1 SWAP8 POP SWAP6 POP PUSH2 0x597 DUP8 DUP8 DUP12 DUP12 PUSH2 0x76B JUMP JUMPDEST SWAP1 SWAP8 POP SWAP6 POP PUSH2 0x5A8 DUP6 DUP6 PUSH1 0x2 PUSH2 0x91C JUMP JUMPDEST SWAP1 SWAP4 POP SWAP2 POP PUSH2 0x5B9 DUP8 DUP8 DUP6 DUP6 PUSH2 0x76B JUMP JUMPDEST SWAP1 SWAP8 POP SWAP6 POP PUSH2 0x5CA DUP12 DUP12 DUP10 DUP10 PUSH2 0x6FA JUMP JUMPDEST PUSH1 0x20 DUP4 ADD MSTORE DUP2 MSTORE PUSH2 0x5DD DUP6 DUP6 DUP10 DUP10 PUSH2 0x76B JUMP JUMPDEST SWAP1 SWAP12 POP SWAP10 POP PUSH2 0x5EE DUP14 DUP14 DUP14 DUP14 PUSH2 0x6FA JUMP JUMPDEST SWAP1 SWAP12 POP SWAP10 POP PUSH2 0x608 DUP10 DUP10 DUP4 PUSH1 0x2 PUSH1 0x20 MUL ADD MLOAD DUP5 PUSH1 0x3 PUSH2 0x533 JUMP JUMPDEST SWAP1 SWAP14 POP SWAP12 POP PUSH2 0x619 DUP12 DUP12 DUP16 DUP16 PUSH2 0x76B JUMP JUMPDEST PUSH1 0x60 DUP4 ADD MSTORE PUSH1 0x40 DUP3 ADD MSTORE JUMPDEST SWAP13 SWAP12 POP POP POP POP POP POP POP POP POP POP POP POP JUMP JUMPDEST PUSH1 0x0 DUP1 PUSH1 0x0 DUP1 PUSH1 0x0 DUP1 PUSH2 0x647 DUP9 DUP9 PUSH2 0x94F JUMP JUMPDEST SWAP1 SWAP3 POP SWAP1 POP PUSH2 0x658 DUP13 DUP13 DUP5 DUP5 PUSH2 0x6FA JUMP JUMPDEST SWAP1 SWAP7 POP SWAP5 POP PUSH2 0x669 DUP11 DUP11 DUP5 DUP5 PUSH2 0x6FA JUMP JUMPDEST SWAP7 SWAP14 SWAP6 SWAP13 POP SWAP11 POP SWAP5 SWAP9 POP SWAP3 SWAP7 POP POP POP POP POP POP POP JUMP JUMPDEST PUSH2 0x686 PUSH2 0xA3E JUMP JUMPDEST DUP8 ISZERO PUSH2 0x6EF JUMPI PUSH1 0x1 DUP9 AND ISZERO PUSH2 0x6C7 JUMPI DUP1 MLOAD PUSH1 0x20 DUP3 ADD MLOAD PUSH1 0x40 DUP4 ADD MLOAD PUSH1 0x60 DUP5 ADD MLOAD PUSH1 0x80 DUP6 ADD MLOAD PUSH1 0xA0 DUP7 ADD MLOAD PUSH2 0x6C4 SWAP6 SWAP5 SWAP4 SWAP3 SWAP2 SWAP1 DUP14 DUP14 DUP14 DUP14 DUP14 DUP14 PUSH2 0x3AB JUMP JUMPDEST SWAP1 POP JUMPDEST PUSH2 0x6D5 DUP8 DUP8 DUP8 DUP8 DUP8 DUP8 PUSH2 0x7AD JUMP JUMPDEST SWAP5 SWAP12 POP SWAP3 SWAP10 POP SWAP1 SWAP8 POP SWAP6 POP SWAP4 POP SWAP2 POP PUSH1 0x2 DUP9 DIV SWAP8 POP PUSH2 0x686 JUMP JUMPDEST SWAP8 SWAP7 POP POP POP POP POP POP POP JUMP JUMPDEST PUSH1 0x0 DUP1 PUSH2 0x738 PUSH1 0x0 DUP1 MLOAD PUSH1 0x20 PUSH2 0xA5D DUP4 CODECOPY DUP2 MLOAD SWAP2 MSTORE DUP6 DUP9 MULMOD PUSH1 0x0 DUP1 MLOAD PUSH1 0x20 PUSH2 0xA5D DUP4 CODECOPY DUP2 MLOAD SWAP2 MSTORE DUP6 DUP9 MULMOD PUSH1 0x0 DUP1 MLOAD PUSH1 0x20 PUSH2 0xA5D DUP4 CODECOPY DUP2 MLOAD SWAP2 MSTORE PUSH2 0x9D2 JUMP JUMPDEST PUSH1 0x0 DUP1 MLOAD PUSH1 0x20 PUSH2 0xA5D DUP4 CODECOPY DUP2 MLOAD SWAP2 MSTORE DUP1 DUP7 DUP9 MULMOD PUSH1 0x0 DUP1 MLOAD PUSH1 0x20 PUSH2 0xA5D DUP4 CODECOPY DUP2 MLOAD SWAP2 MSTORE DUP7 DUP11 MULMOD ADDMOD SWAP2 POP SWAP2 POP SWAP5 POP SWAP5 SWAP3 POP POP POP JUMP JUMPDEST PUSH1 0x0 DUP1 PUSH2 0x787 DUP7 DUP6 PUSH1 0x0 DUP1 MLOAD PUSH1 0x20 PUSH2 0xA5D DUP4 CODECOPY DUP2 MLOAD SWAP2 MSTORE PUSH2 0x9D2 JUMP JUMPDEST PUSH2 0x7A0 DUP7 DUP6 PUSH1 0x0 DUP1 MLOAD PUSH1 0x20 PUSH2 0xA5D DUP4 CODECOPY DUP2 MLOAD SWAP2 MSTORE PUSH2 0x9D2 JUMP JUMPDEST SWAP2 POP SWAP2 POP SWAP5 POP SWAP5 SWAP3 POP POP POP JUMP JUMPDEST PUSH1 0x0 DUP1 PUSH1 0x0 DUP1 PUSH1 0x0 DUP1 PUSH2 0x7C2 DUP13 DUP13 PUSH1 0x3 PUSH2 0x91C JUMP JUMPDEST SWAP1 SWAP7 POP SWAP5 POP PUSH2 0x7D3 DUP7 DUP7 DUP15 DUP15 PUSH2 0x6FA JUMP JUMPDEST SWAP1 SWAP7 POP SWAP5 POP PUSH2 0x7E4 DUP11 DUP11 DUP11 DUP11 PUSH2 0x6FA JUMP JUMPDEST SWAP1 SWAP9 POP SWAP7 POP PUSH2 0x7F5 DUP13 DUP13 DUP13 DUP13 PUSH2 0x6FA JUMP JUMPDEST SWAP1 SWAP5 POP SWAP3 POP PUSH2 0x806 DUP5 DUP5 DUP11 DUP11 PUSH2 0x6FA JUMP JUMPDEST SWAP1 SWAP5 POP SWAP3 POP PUSH2 0x817 DUP7 DUP7 DUP2 DUP2 PUSH2 0x6FA JUMP JUMPDEST SWAP1 SWAP13 POP SWAP11 POP PUSH2 0x828 DUP5 DUP5 PUSH1 0x8 PUSH2 0x91C JUMP JUMPDEST SWAP1 SWAP3 POP SWAP1 POP PUSH2 0x839 DUP13 DUP13 DUP5 DUP5 PUSH2 0x76B JUMP JUMPDEST SWAP1 SWAP13 POP SWAP11 POP PUSH2 0x84A DUP9 DUP9 DUP2 DUP2 PUSH2 0x6FA JUMP JUMPDEST SWAP1 SWAP3 POP SWAP1 POP PUSH2 0x85B DUP5 DUP5 PUSH1 0x4 PUSH2 0x91C JUMP JUMPDEST SWAP1 SWAP5 POP SWAP3 POP PUSH2 0x86C DUP5 DUP5 DUP15 DUP15 PUSH2 0x76B JUMP JUMPDEST SWAP1 SWAP5 POP SWAP3 POP PUSH2 0x87D DUP5 DUP5 DUP9 DUP9 PUSH2 0x6FA JUMP JUMPDEST SWAP1 SWAP5 POP SWAP3 POP PUSH2 0x88E DUP11 DUP11 PUSH1 0x8 PUSH2 0x91C JUMP JUMPDEST SWAP1 SWAP7 POP SWAP5 POP PUSH2 0x89F DUP7 DUP7 DUP13 DUP13 PUSH2 0x6FA JUMP JUMPDEST SWAP1 SWAP7 POP SWAP5 POP PUSH2 0x8B0 DUP7 DUP7 DUP5 DUP5 PUSH2 0x6FA JUMP JUMPDEST SWAP1 SWAP7 POP SWAP5 POP PUSH2 0x8C1 DUP5 DUP5 DUP9 DUP9 PUSH2 0x76B JUMP JUMPDEST SWAP1 SWAP5 POP SWAP3 POP PUSH2 0x8D2 DUP13 DUP13 PUSH1 0x2 PUSH2 0x91C JUMP JUMPDEST SWAP1 SWAP7 POP SWAP5 POP PUSH2 0x8E3 DUP7 DUP7 DUP11 DUP11 PUSH2 0x6FA JUMP JUMPDEST SWAP1 SWAP7 POP SWAP5 POP PUSH2 0x8F4 DUP9 DUP9 DUP5 DUP5 PUSH2 0x6FA JUMP JUMPDEST SWAP1 SWAP3 POP SWAP1 POP PUSH2 0x905 DUP3 DUP3 PUSH1 0x8 PUSH2 0x91C JUMP JUMPDEST DUP1 SWAP3 POP DUP2 SWAP4 POP POP POP SWAP7 POP SWAP7 POP SWAP7 POP SWAP7 POP SWAP7 POP SWAP7 SWAP1 POP JUMP JUMPDEST PUSH1 0x0 DUP1 PUSH1 0x0 DUP1 MLOAD PUSH1 0x20 PUSH2 0xA5D DUP4 CODECOPY DUP2 MLOAD SWAP2 MSTORE DUP4 DUP7 MULMOD PUSH1 0x0 DUP1 MLOAD PUSH1 0x20 PUSH2 0xA5D DUP4 CODECOPY DUP2 MLOAD SWAP2 MSTORE DUP5 DUP7 MULMOD SWAP2 POP SWAP2 POP SWAP4 POP SWAP4 SWAP2 POP POP JUMP JUMPDEST PUSH1 0x0 DUP1 DUP1 PUSH2 0x990 PUSH1 0x0 DUP1 MLOAD PUSH1 0x20 PUSH2 0xA5D DUP4 CODECOPY DUP2 MLOAD SWAP2 MSTORE DUP1 DUP8 DUP9 MULMOD PUSH1 0x0 DUP1 MLOAD PUSH1 0x20 PUSH2 0xA5D DUP4 CODECOPY DUP2 MLOAD SWAP2 MSTORE DUP8 DUP9 MULMOD ADDMOD PUSH1 0x0 DUP1 MLOAD PUSH1 0x20 PUSH2 0xA5D DUP4 CODECOPY DUP2 MLOAD SWAP2 MSTORE PUSH2 0x9EB JUMP JUMPDEST SWAP1 POP PUSH1 0x0 DUP1 MLOAD PUSH1 0x20 PUSH2 0xA5D DUP4 CODECOPY DUP2 MLOAD SWAP2 MSTORE DUP2 DUP7 MULMOD PUSH1 0x0 DUP1 MLOAD PUSH1 0x20 PUSH2 0xA5D DUP4 CODECOPY DUP2 MLOAD SWAP2 MSTORE DUP3 DUP7 MULMOD PUSH1 0x0 DUP1 MLOAD PUSH1 0x20 PUSH2 0xA5D DUP4 CODECOPY DUP2 MLOAD SWAP2 MSTORE SUB SWAP3 POP SWAP3 POP POP SWAP3 POP SWAP3 SWAP1 POP JUMP JUMPDEST PUSH1 0x0 DUP2 DUP1 ISZERO ISZERO PUSH2 0x9DE JUMPI INVALID JUMPDEST DUP4 DUP4 SUB DUP6 ADDMOD SWAP5 SWAP4 POP POP POP POP JUMP JUMPDEST PUSH1 0x0 DUP1 PUSH1 0x40 MLOAD PUSH1 0x20 DUP2 MSTORE PUSH1 0x20 DUP1 DUP3 ADD MSTORE PUSH1 0x20 PUSH1 0x40 DUP3 ADD MSTORE DUP5 PUSH1 0x60 DUP3 ADD MSTORE PUSH1 0x2 DUP5 SUB PUSH1 0x80 DUP3 ADD MSTORE DUP4 PUSH1 0xA0 DUP3 ADD MSTORE PUSH1 0x20 DUP2 PUSH1 0xC0 DUP4 PUSH1 0x5 PUSH2 0x7D0 GAS SUB STATICCALL SWAP1 MLOAD SWAP3 POP SWAP1 POP DUP1 ISZERO ISZERO PUSH2 0xA37 JUMPI PUSH1 0x0 DUP1 REVERT JUMPDEST POP SWAP3 SWAP2 POP POP JUMP JUMPDEST PUSH1 0x40 MLOAD DUP1 PUSH1 0xC0 ADD PUSH1 0x40 MSTORE DUP1 PUSH1 0x6 SWAP1 PUSH1 0x20 DUP3 MUL DUP1 CODESIZE DUP4 CODECOPY POP SWAP2 SWAP3 SWAP2 POP POP JUMP INVALID ADDRESS PUSH5 0x4E72E131A0 0x29 0xb8 POP GASLIMIT 0xb6 DUP2 DUP2 PC 0x5d SWAP8 DUP2 PUSH11 0x916871CA8D3C208C16D87C REVERT 0x47 LOG1 PUSH6 0x627A7A723058 KECCAK256 PUSH6 0x4F1116412EA6 PUSH16 0x3388EC200BBFF38B8BC315DA0F16C081 PUSH25 0x5B29299F318A99002900000000000000000000000000000000 "
		},
		"gasEstimates": {
			"creation": {
				"codeDepositCost": "545600",
				"executionCost": "612",
				"totalCost": "546212"
			},
			"external": {
				"ECTwistAdd(uint256,uint256,uint256,uint256,uint256,uint256,uint256,uint256)": "infinite",
				"ECTwistMul(uint256,uint256,uint256,uint256,uint256)": "infinite",
				"GetFieldModulus()": "infinite"
			},
			"internal": {
				"_ECTwistAddJacobian(uint256,uint256,uint256,uint256,uint256,uint256,uint256,uint256,uint256,uint256,uint256,uint256)": "infinite",
				"_ECTwistDoubleJacobian(uint256,uint256,uint256,uint256,uint256,uint256)": "infinite",
				"_ECTwistMulJacobian(uint256,uint256,uint256,uint256,uint256,uint256,uint256)": "infinite",
				"_FQ2Add(uint256,uint256,uint256,uint256)": "infinite",
				"_FQ2Div(uint256,uint256,uint256,uint256)": "infinite",
				"_FQ2Inv(uint256,uint256)": "infinite",
				"_FQ2Muc(uint256,uint256,uint256)": "143",
				"_FQ2Mul(uint256,uint256,uint256,uint256)": "379",
				"_FQ2Sub(uint256,uint256,uint256,uint256)": "infinite",
				"_fromJacobian(uint256,uint256,uint256,uint256,uint256,uint256)": "infinite",
				"_isOnCurve(uint256,uint256,uint256,uint256)": "infinite",
				"_modInv(uint256,uint256)": "infinite",
				"submod(uint256,uint256,uint256)": "72"
			}
		},
		"methodIdentifiers": {
			"ECTwistAdd(uint256,uint256,uint256,uint256,uint256,uint256,uint256,uint256)": "61a931ec",
			"ECTwistMul(uint256,uint256,uint256,uint256,uint256)": "b73ab75d",
			"GetFieldModulus()": "55a3e90f"
		}
	},
	"abi": [
		{
			"constant": true,
			"inputs": [],
			"name": "GetFieldModulus",
			"outputs": [
				{
					"name": "",
					"type": "uint256"
				}
			],
			"payable": false,
			"stateMutability": "view",
			"type": "function"
		},
		{
			"constant": true,
			"inputs": [
				{
					"name": "pt1xx",
					"type": "uint256"
				},
				{
					"name": "pt1xy",
					"type": "uint256"
				},
				{
					"name": "pt1yx",
					"type": "uint256"
				},
				{
					"name": "pt1yy",
					"type": "uint256"
				},
				{
					"name": "pt2xx",
					"type": "uint256"
				},
				{
					"name": "pt2xy",
					"type": "uint256"
				},
				{
					"name": "pt2yx",
					"type": "uint256"
				},
				{
					"name": "pt2yy",
					"type": "uint256"
				}
			],
			"name": "ECTwistAdd",
			"outputs": [
				{
					"name": "",
					"type": "uint256"
				},
				{
					"name": "",
					"type": "uint256"
				},
				{
					"name": "",
					"type": "uint256"
				},
				{
					"name": "",
					"type": "uint256"
				}
			],
			"payable": false,
			"stateMutability": "view",
			"type": "function"
		},
		{
			"constant": true,
			"inputs": [
				{
					"name": "s",
					"type": "uint256"
				},
				{
					"name": "pt1xx",
					"type": "uint256"
				},
				{
					"name": "pt1xy",
					"type": "uint256"
				},
				{
					"name": "pt1yx",
					"type": "uint256"
				},
				{
					"name": "pt1yy",
					"type": "uint256"
				}
			],
			"name": "ECTwistMul",
			"outputs": [
				{
					"name": "",
					"type": "uint256"
				},
				{
					"name": "",
					"type": "uint256"
				},
				{
					"name": "",
					"type": "uint256"
				},
				{
					"name": "",
					"type": "uint256"
				}
			],
			"payable": false,
			"stateMutability": "view",
			"type": "function"
		}
	]
}