{
	"data": {
		"bytecode": {
			"linkReferences": {},
			"object": "608060405234801561001057600080fd5b5061026f806100206000396000f3fe608060405234801561001057600080fd5b50600436106100365760003560e01c806327dc297e1461003b57806338bbfa50146100ea575b600080fd5b6100e86004803603604081101561005157600080fd5b8135919081019060408101602082013564010000000081111561007357600080fd5b82018360208201111561008557600080fd5b803590602001918460018302840111640100000000831117156100a757600080fd5b91908080601f01602080910402602001604051908101604052809392919081815260200183838082843760009201919091525092955061021e945050505050565b005b6100e86004803603606081101561010057600080fd5b8135919081019060408101602082013564010000000081111561012257600080fd5b82018360208201111561013457600080fd5b8035906020019184600183028401116401000000008311171561015657600080fd5b91908080601f01602080910402602001604051908101604052809392919081815260200183838082843760009201919091525092959493602081019350359150506401000000008111156101a957600080fd5b8201836020820111156101bb57600080fd5b803590602001918460018302840111640100000000831117156101dd57600080fd5b91908080601f01602080910402602001604051908101604052809392919081815260200183838082843760009201919091525092955061023e945050505050565b60408051600081526020810190915261023a908390839061023e565b5050565b50505056fea165627a7a72305820fd368ec05fb1904e5f49d59efda9639ff7e82f3782051ce604b33a29092040410029",
			"opcodes": "PUSH1 0x80 PUSH1 0x40 MSTORE CALLVALUE DUP1 ISZERO PUSH2 0x10 JUMPI PUSH1 0x0 DUP1 REVERT JUMPDEST POP PUSH2 0x26F DUP1 PUSH2 0x20 PUSH1 0x0 CODECOPY PUSH1 0x0 RETURN INVALID PUSH1 0x80 PUSH1 0x40 MSTORE CALLVALUE DUP1 ISZERO PUSH2 0x10 JUMPI PUSH1 0x0 DUP1 REVERT JUMPDEST POP PUSH1 0x4 CALLDATASIZE LT PUSH2 0x36 JUMPI PUSH1 0x0 CALLDATALOAD PUSH1 0xE0 SHR DUP1 PUSH4 0x27DC297E EQ PUSH2 0x3B JUMPI DUP1 PUSH4 0x38BBFA50 EQ PUSH2 0xEA JUMPI JUMPDEST PUSH1 0x0 DUP1 REVERT JUMPDEST PUSH2 0xE8 PUSH1 0x4 DUP1 CALLDATASIZE SUB PUSH1 0x40 DUP2 LT ISZERO PUSH2 0x51 JUMPI PUSH1 0x0 DUP1 REVERT JUMPDEST DUP2 CALLDATALOAD SWAP2 SWAP1 DUP2 ADD SWAP1 PUSH1 0x40 DUP2 ADD PUSH1 0x20 DUP3 ADD CALLDATALOAD PUSH5 0x100000000 DUP2 GT ISZERO PUSH2 0x73 JUMPI PUSH1 0x0 DUP1 REVERT JUMPDEST DUP3 ADD DUP4 PUSH1 0x20 DUP3 ADD GT ISZERO PUSH2 0x85 JUMPI PUSH1 0x0 DUP1 REVERT JUMPDEST DUP1 CALLDATALOAD SWAP1 PUSH1 0x20 ADD SWAP2 DUP5 PUSH1 0x1 DUP4 MUL DUP5 ADD GT PUSH5 0x100000000 DUP4 GT OR ISZERO PUSH2 0xA7 JUMPI PUSH1 0x0 DUP1 REVERT JUMPDEST SWAP2 SWAP1 DUP1 DUP1 PUSH1 0x1F ADD PUSH1 0x20 DUP1 SWAP2 DIV MUL PUSH1 0x20 ADD PUSH1 0x40 MLOAD SWAP1 DUP2 ADD PUSH1 0x40 MSTORE DUP1 SWAP4 SWAP3 SWAP2 SWAP1 DUP2 DUP2 MSTORE PUSH1 0x20 ADD DUP4 DUP4 DUP1 DUP3 DUP5 CALLDATACOPY PUSH1 0x0 SWAP3 ADD SWAP2 SWAP1 SWAP2 MSTORE POP SWAP3 SWAP6 POP PUSH2 0x21E SWAP5 POP POP POP POP POP JUMP JUMPDEST STOP JUMPDEST PUSH2 0xE8 PUSH1 0x4 DUP1 CALLDATASIZE SUB PUSH1 0x60 DUP2 LT ISZERO PUSH2 0x100 JUMPI PUSH1 0x0 DUP1 REVERT JUMPDEST DUP2 CALLDATALOAD SWAP2 SWAP1 DUP2 ADD SWAP1 PUSH1 0x40 DUP2 ADD PUSH1 0x20 DUP3 ADD CALLDATALOAD PUSH5 0x100000000 DUP2 GT ISZERO PUSH2 0x122 JUMPI PUSH1 0x0 DUP1 REVERT JUMPDEST DUP3 ADD DUP4 PUSH1 0x20 DUP3 ADD GT ISZERO PUSH2 0x134 JUMPI PUSH1 0x0 DUP1 REVERT JUMPDEST DUP1 CALLDATALOAD SWAP1 PUSH1 0x20 ADD SWAP2 DUP5 PUSH1 0x1 DUP4 MUL DUP5 ADD GT PUSH5 0x100000000 DUP4 GT OR ISZERO PUSH2 0x156 JUMPI PUSH1 0x0 DUP1 REVERT JUMPDEST SWAP2 SWAP1 DUP1 DUP1 PUSH1 0x1F ADD PUSH1 0x20 DUP1 SWAP2 DIV MUL PUSH1 0x20 ADD PUSH1 0x40 MLOAD SWAP1 DUP2 ADD PUSH1 0x40 MSTORE DUP1 SWAP4 SWAP3 SWAP2 SWAP1 DUP2 DUP2 MSTORE PUSH1 0x20 ADD DUP4 DUP4 DUP1 DUP3 DUP5 CALLDATACOPY PUSH1 0x0 SWAP3 ADD SWAP2 SWAP1 SWAP2 MSTORE POP SWAP3 SWAP6 SWAP5 SWAP4 PUSH1 0x20 DUP2 ADD SWAP4 POP CALLDATALOAD SWAP2 POP POP PUSH5 0x100000000 DUP2 GT ISZERO PUSH2 0x1A9 JUMPI PUSH1 0x0 DUP1 REVERT JUMPDEST DUP3 ADD DUP4 PUSH1 0x20 DUP3 ADD GT ISZERO PUSH2 0x1BB JUMPI PUSH1 0x0 DUP1 REVERT JUMPDEST DUP1 CALLDATALOAD SWAP1 PUSH1 0x20 ADD SWAP2 DUP5 PUSH1 0x1 DUP4 MUL DUP5 ADD GT PUSH5 0x100000000 DUP4 GT OR ISZERO PUSH2 0x1DD JUMPI PUSH1 0x0 DUP1 REVERT JUMPDEST SWAP2 SWAP1 DUP1 DUP1 PUSH1 0x1F ADD PUSH1 0x20 DUP1 SWAP2 DIV MUL PUSH1 0x20 ADD PUSH1 0x40 MLOAD SWAP1 DUP2 ADD PUSH1 0x40 MSTORE DUP1 SWAP4 SWAP3 SWAP2 SWAP1 DUP2 DUP2 MSTORE PUSH1 0x20 ADD DUP4 DUP4 DUP1 DUP3 DUP5 CALLDATACOPY PUSH1 0x0 SWAP3 ADD SWAP2 SWAP1 SWAP2 MSTORE POP SWAP3 SWAP6 POP PUSH2 0x23E SWAP5 POP POP POP POP POP JUMP JUMPDEST PUSH1 0x40 DUP1 MLOAD PUSH1 0x0 DUP2 MSTORE PUSH1 0x20 DUP2 ADD SWAP1 SWAP2 MSTORE PUSH2 0x23A SWAP1 DUP4 SWAP1 DUP4 SWAP1 PUSH2 0x23E JUMP JUMPDEST POP POP JUMP JUMPDEST POP POP POP JUMP INVALID LOG1 PUSH6 0x627A7A723058 KECCAK256 REVERT CALLDATASIZE DUP15 0xc0 0x5f 0xb1 SWAP1 0x4e 0x5f 0x49 0xd5 SWAP15 REVERT 0xa9 PUSH4 0x9FF7E82F CALLDATACOPY DUP3 SDIV SHR 0xe6 DIV 0xb3 GASPRICE 0x29 MULMOD KECCAK256 BLOCKHASH COINBASE STOP 0x29 "
		},
		"gasEstimates": {
			"creation": {
				"codeDepositCost": "124600",
				"executionCost": "171",
				"totalCost": "124771"
			},
			"external": {
				"__callback(bytes32,string)": "infinite",
				"__callback(bytes32,string,bytes)": "infinite"
			},
			"internal": {
				"ba2cbor(bytes memory[] memory)": "infinite",
				"copyBytes(bytes memory,uint256,uint256,bytes memory,uint256)": "infinite",
				"ecrecovery(bytes32,bytes memory)": "infinite",
				"getCodeSize(address)": "infinite",
				"indexOf(string memory,string memory)": "infinite",
				"matchBytes32Prefix(bytes32,bytes memory,uint256)": "infinite",
				"oraclize_cbAddress()": "infinite",
				"oraclize_getNetworkName()": "infinite",
				"oraclize_getPrice(string memory)": "infinite",
				"oraclize_getPrice(string memory,uint256)": "infinite",
				"oraclize_newRandomDSQuery(uint256,uint256,uint256)": "infinite",
				"oraclize_query(string memory,bytes memory[1] memory)": "infinite",
				"oraclize_query(string memory,bytes memory[1] memory,uint256)": "infinite",
				"oraclize_query(string memory,bytes memory[2] memory)": "infinite",
				"oraclize_query(string memory,bytes memory[2] memory,uint256)": "infinite",
				"oraclize_query(string memory,bytes memory[3] memory)": "infinite",
				"oraclize_query(string memory,bytes memory[3] memory,uint256)": "infinite",
				"oraclize_query(string memory,bytes memory[4] memory)": "infinite",
				"oraclize_query(string memory,bytes memory[4] memory,uint256)": "infinite",
				"oraclize_query(string memory,bytes memory[5] memory)": "infinite",
				"oraclize_query(string memory,bytes memory[5] memory,uint256)": "infinite",
				"oraclize_query(string memory,bytes memory[] memory)": "infinite",
				"oraclize_query(string memory,bytes memory[] memory,uint256)": "infinite",
				"oraclize_query(string memory,string memory)": "infinite",
				"oraclize_query(string memory,string memory,string memory)": "infinite",
				"oraclize_query(string memory,string memory,string memory,uint256)": "infinite",
				"oraclize_query(string memory,string memory,uint256)": "infinite",
				"oraclize_query(string memory,string memory[1] memory)": "infinite",
				"oraclize_query(string memory,string memory[1] memory,uint256)": "infinite",
				"oraclize_query(string memory,string memory[2] memory)": "infinite",
				"oraclize_query(string memory,string memory[2] memory,uint256)": "infinite",
				"oraclize_query(string memory,string memory[3] memory)": "infinite",
				"oraclize_query(string memory,string memory[3] memory,uint256)": "infinite",
				"oraclize_query(string memory,string memory[4] memory)": "infinite",
				"oraclize_query(string memory,string memory[4] memory,uint256)": "infinite",
				"oraclize_query(string memory,string memory[5] memory)": "infinite",
				"oraclize_query(string memory,string memory[5] memory,uint256)": "infinite",
				"oraclize_query(string memory,string memory[] memory)": "infinite",
				"oraclize_query(string memory,string memory[] memory,uint256)": "infinite",
				"oraclize_query(uint256,string memory,bytes memory[1] memory)": "infinite",
				"oraclize_query(uint256,string memory,bytes memory[1] memory,uint256)": "infinite",
				"oraclize_query(uint256,string memory,bytes memory[2] memory)": "infinite",
				"oraclize_query(uint256,string memory,bytes memory[2] memory,uint256)": "infinite",
				"oraclize_query(uint256,string memory,bytes memory[3] memory)": "infinite",
				"oraclize_query(uint256,string memory,bytes memory[3] memory,uint256)": "infinite",
				"oraclize_query(uint256,string memory,bytes memory[4] memory)": "infinite",
				"oraclize_query(uint256,string memory,bytes memory[4] memory,uint256)": "infinite",
				"oraclize_query(uint256,string memory,bytes memory[5] memory)": "infinite",
				"oraclize_query(uint256,string memory,bytes memory[5] memory,uint256)": "infinite",
				"oraclize_query(uint256,string memory,bytes memory[] memory)": "infinite",
				"oraclize_query(uint256,string memory,bytes memory[] memory,uint256)": "infinite",
				"oraclize_query(uint256,string memory,string memory)": "infinite",
				"oraclize_query(uint256,string memory,string memory,string memory)": "infinite",
				"oraclize_query(uint256,string memory,string memory,string memory,uint256)": "infinite",
				"oraclize_query(uint256,string memory,string memory,uint256)": "infinite",
				"oraclize_query(uint256,string memory,string memory[1] memory)": "infinite",
				"oraclize_query(uint256,string memory,string memory[1] memory,uint256)": "infinite",
				"oraclize_query(uint256,string memory,string memory[2] memory)": "infinite",
				"oraclize_query(uint256,string memory,string memory[2] memory,uint256)": "infinite",
				"oraclize_query(uint256,string memory,string memory[3] memory)": "infinite",
				"oraclize_query(uint256,string memory,string memory[3] memory,uint256)": "infinite",
				"oraclize_query(uint256,string memory,string memory[4] memory)": "infinite",
				"oraclize_query(uint256,string memory,string memory[4] memory,uint256)": "infinite",
				"oraclize_query(uint256,string memory,string memory[5] memory)": "infinite",
				"oraclize_query(uint256,string memory,string memory[5] memory,uint256)": "infinite",
				"oraclize_query(uint256,string memory,string memory[] memory)": "infinite",
				"oraclize_query(uint256,string memory,string memory[] memory,uint256)": "infinite",
				"oraclize_randomDS_getSessionPubKeyHash()": "infinite",
				"oraclize_randomDS_proofVerify__main(bytes memory,bytes32,bytes memory,string memory)": "infinite",
				"oraclize_randomDS_proofVerify__returnCode(bytes32,string memory,bytes memory)": "infinite",
				"oraclize_randomDS_proofVerify__sessionKeyValidity(bytes memory,uint256)": "infinite",
				"oraclize_randomDS_setCommitment(bytes32,bytes32)": "infinite",
				"oraclize_setCustomGasPrice(uint256)": "infinite",
				"oraclize_setNetwork()": "infinite",
				"oraclize_setNetwork(uint8)": "infinite",
				"oraclize_setNetworkName(string memory)": "infinite",
				"oraclize_setProof(bytes1)": "infinite",
				"parseAddr(string memory)": "infinite",
				"parseInt(string memory)": "infinite",
				"parseInt(string memory,uint256)": "infinite",
				"safeMemoryCleaner()": "infinite",
				"safeParseInt(string memory)": "infinite",
				"safeParseInt(string memory,uint256)": "infinite",
				"safer_ecrecover(bytes32,uint8,bytes32,bytes32)": "infinite",
				"strCompare(string memory,string memory)": "infinite",
				"strConcat(string memory,string memory)": "infinite",
				"strConcat(string memory,string memory,string memory)": "infinite",
				"strConcat(string memory,string memory,string memory,string memory)": "infinite",
				"strConcat(string memory,string memory,string memory,string memory,string memory)": "infinite",
				"stra2cbor(string memory[] memory)": "infinite",
				"uint2str(uint256)": "infinite",
				"verifySig(bytes32,bytes memory,bytes memory)": "infinite"
			}
		},
		"methodIdentifiers": {
			"__callback(bytes32,string)": "27dc297e",
			"__callback(bytes32,string,bytes)": "38bbfa50"
		}
	},
	"abi": [
		{
			"constant": false,
			"inputs": [
				{
					"name": "_myid",
					"type": "bytes32"
				},
				{
					"name": "_result",
					"type": "string"
				}
			],
			"name": "__callback",
			"outputs": [],
			"payable": false,
			"stateMutability": "nonpayable",
			"type": "function"
		},
		{
			"constant": false,
			"inputs": [
				{
					"name": "_myid",
					"type": "bytes32"
				},
				{
					"name": "_result",
					"type": "string"
				},
				{
					"name": "_proof",
					"type": "bytes"
				}
			],
			"name": "__callback",
			"outputs": [],
			"payable": false,
			"stateMutability": "nonpayable",
			"type": "function"
		}
	]
}